:020000040800F2
:1000000000800120DD900108D58F0108DB8F0108F9
:10001000E18F0108E78F0108ED8F01080000000063
:10002000000000000000000000000000F38F010845
:1000300001900108000000000F9001081D900108C8
:100040002D9101082D9101082D9101082D91010894
:100050002D9101082D9101082D9101082D91010884
:100060002D9101082D9101082D9101082D91010874
:100070002D9101082D9101082D9101082D91010864
:100080002D9101082D9101082D910108000000001B
:100090000000000000000000000000002D91010899
:1000A0002D9101082D9101082D9101082D91010834
:1000B0002D9101082D9101082D9101082D91010824
:1000C0002D9101082D9101082D9101082D91010814
:1000D0002D9101082D9101082990010800000000D0
:1000E0003D9001082D9101082D91010800000000AC
:1000F0000000000000000000000000002D91010839
:10010000000000002D9101082D9101082D9101089A
:1001100000000000000000000000000000000000DF
:100120002D9101082D9101082D9101082D910108B3
:100130002D910108000000000000000000000000F8
:100140000000000000000000000000002D910108E8
:100150002D9101082D9101082D9101082D91010883
:100160002D9101082D910108000000000000000001
:10017000000000000000000000000000000000007F
:10018000000000002D9101080000000000000000A8
:040190002D910108A4
:1001C0000348044B834202D0034B03B118477047E6
:1001D0000810002008100020000000000548064913
:1001E0000B1AD90F01EBA301491002D0034B03B145
:1001F0001847704708100020081000200000000079
:1002000010B5064C237843B9FFF7DAFF044B13B15E
:100210000448AFF300800123237010BD08100020B4
:10022000000000003091010808B5044B1BB10449DF
:100230000448AFF30080BDE80840CFE700000000AD
:100240000C10002030910108002301461A46184680
:1002500000F08CB838B5084B084D5B1B9C1007D0DC
:10026000043B1D44013C55F804399847002CF9D152
:10027000BDE8384018F062BF64A0010860A0010822
:1002800070B50D4E0D4D761BB61006D0002455F8F6
:10029000043B01349847A642F9D1094E094D761B1B
:1002A00018F046FFB61006D0002455F8043B013480
:1002B0009847A642F9D170BD58A0010858A001087E
:1002C00060A0010858A00108830730B548D0541E2B
:1002D000002A3FD0CAB2034601E0013C3AD303F8FA
:1002E000012B9D07F9D1032C2DD9CDB245EA052567
:1002F0000F2C45EA054536D9A4F1100222F00F0C67
:1003000003F1200EE6444FEA121C03F1100242E909
:10031000045542E9025510327245F8D10CF1010240
:1003200014F00C0F03EB021204F00F0C13D0ACF11D
:10033000040323F003030433134442F8045B9342A1
:10034000FBD10CF003042CB1CAB21C4403F8012BFE
:100350009C42FBD130BD64461346002CF4D1F9E732
:1003600003461446BFE71A46A446E0E770B4184CAB
:100370002568D5F848411CB365681F2D25DC38B9C0
:10038000AB1C0135656044F82310002070BC704739
:1003900004EB850C0228CCF88820D4F888614FF053
:1003A000010202FA05F246EA0206C4F88861CCF8B6
:1003B0000831E5D1D4F88C311343C4F88C31DFE730
:1003C00005F5A674C5F84841D6E74FF0FF30DDE7E4
:1003D000489101087BB972B90029BEBF00204FF0D7
:1003E000004106E008BF00281CBF6FF000414FF03D
:1003F000FF3000F0BFB9ADF1080C6DE904CE002963
:1004000009DB002B1ADB00F04DF8DDF804E0DDE934
:10041000022304B07047404261EB4101002B1BDB1B
:1004200000F040F8DDF804E0DDE9022304B04042CA
:1004300061EB4101524263EB43037047524263EB6D
:10044000430300F02FF8DDF804E0DDE9022304B0F7
:10045000404261EB41017047524263EB430300F0BD
:1004600021F8DDF804E0DDE9022304B0524263EB39
:100470004303704753B94AB9002908BF00281CBF7D
:100480004FF0FF314FF0FF3000F074B9ADF1080CC0
:100490006DE904CE00F006F8DDF804E0DDE90223A2
:1004A00004B070472DE9F047089D04468E46002BA6
:1004B0004DD18A42944669D9B2FA82F252B101FA18
:1004C00002F3C2F1200120FA01F10CFA02FC41EA28
:1004D000030E94404FEA1C48210CBEFBF8F61FFAAD
:1004E0008CF708FB16E341EA034306FB07F1994248
:1004F0000AD91CEB030306F1FF3080F01F819942FB
:1005000040F21C81023E63445B1AA4B2B3FBF8F0D4
:1005100008FB103344EA034400FB07F7A7420AD95B
:100520001CEB040400F1FF3380F00A81A74240F283
:1005300007816444023840EA0640E41B00261DB1EE
:10054000D4400023C5E900433146BDE8F0878B4223
:1005500009D9002D00F0EF800026C5E900013046E2
:100560003146BDE8F087B3FA83F6002E4AD18B42BC
:1005700002D3824200F2F980841A61EB0303012066
:100580009E46002DE0D0C5E9004EDDE702B9FFDE52
:10059000B2FA82F2002A40F09280A1EB0C014FEAFD
:1005A0001C471FFA8CFE0126200CB1FBF7F307FB5A
:1005B000131140EA01410EFB03F0884208D91CEBFD
:1005C000010103F1FF3802D2884200F2CB8043469A
:1005D000091AA4B2B1FBF7F007FB101144EA014479
:1005E0000EFB00FEA64508D91CEB040400F1FF3108
:1005F00002D2A64500F2BB800846A4EB0E0440EAF6
:1006000003409CE7C6F12007B34022FA07FC4CEAFE
:10061000030C20FA07F401FA06F31C43F9404FEAF1
:100620001C4900FA06F3B1FBF9F8200C1FFA8CFE06
:1006300009FB181140EA014108FB0EF0884202FA5A
:1006400006F20BD91CEB010108F1FF3A80F088801B
:10065000884240F28580A8F102086144091AA4B2D8
:10066000B1FBF9F009FB101144EA014100FB0EFE59
:100670008E4508D91CEB010100F1FF346CD28E4588
:100680006AD90238614440EA0840A0FB0294A1EB19
:100690000E01A142C846A64656D353D05DB1B3EB76
:1006A000080261EB0E0101FA07F722FA06F3F140A6
:1006B0001F43C5E9007100263146BDE8F087C2F14D
:1006C0002003D8400CFA02FC21FA03F391400143C5
:1006D0004FEA1C471FFA8CFEB3FBF7F007FB1036FE
:1006E0000B0C43EA064300FB0EF69E4204FA02F4AA
:1006F00008D91CEB030300F1FF382FD29E422DD9FD
:10070000023863449B1B89B2B3FBF7F607FB163331
:1007100041EA034106FB0EF38B4208D91CEB0101B1
:1007200006F1FF3816D28B4214D9023E6144C91A31
:1007300046EA004638E72E46284605E70646E3E641
:100740001846F8E64B45A9D2B9EB020864EB0C0E4B
:100750000138A3E74646EAE7204694E74046D1E75A
:10076000D0467BE7023B614432E7304609E7644408
:10077000023842E7704700BF10B4044C03460A46F3
:1007800020685DF8044B194600F002B80000002014
:1007900010B502FB01F100F041F8044668B150F8D1
:1007A000042C22F00302043A242A18D8132A06D86B
:1007B00002460023C2E900339360204610BD0023A7
:1007C0001B2AC0E900330FD9242AC0E9023311BF24
:1007D00000F11002036100F118024361E9E7002112
:1007E000FFF772FD204610BD00F10802E1E700BFEF
:1007F000014B1868704700BF00000020024B014603
:10080000186800F00BB800BF00000020024B014642
:10081000186806F0F1B900BF000000202DE9F04F84
:1008200001F10B06162E83B0044624D8102900F2DD
:10083000BA8000F037FB102618220220B74F3A4446
:10084000A2F1080153688B4200F0BA805A68D96857
:1008500022F003021A449D68E9608D60516841F0FE
:1008600001012046516003F1080500F01DFB2846F8
:1008700003B0BDE8F08F36F0070600F19480B14276
:1008800000F2918000F00EFBB6F5FC7FC0F096817F
:10089000730A00F08F80042B00F26B81B30903F11F
:1008A000390003F1380CC3009C4F3B44A3F1080509
:1008B0005B689D4206D10CE0002980F22B81DB6849
:1008C0009D4206D05A6822F00302911B0F29F3DDE6
:1008D00060463D69DFF848C265457CD06A6822F011
:1008E0000302931B0F2B00F37781002BC7E904CC85
:1008F00080F26881B2F5007F80F01681D3087968B4
:1009000001334FEA521E012202FA0EF20A4357F84F
:1009100033E0C5F808E007EBC3010839E9607A6005
:1009200047F83350CEF80C50831001219940914282
:1009300057D8114206D120F003004900114200F1BE
:100940000400FAD007EBC0094D468646D5F80C8066
:10095000454508D119E1002B80F22081D8F80C80A0
:10096000454500F01281D8F8042022F00302931BC1
:100970000F2BF0DD2046D8E9025408EB060146F0C3
:100980000106C8F80460EC60A56043F00104C7E903
:100990000411C1E902CC4C6048F8023000F084FA3E
:1009A00008F1080502E00C2323600025284603B067
:1009B000BDE8F08F4FF4007340204FF03F0C73E719
:1009C000D3689A4208BF02307FF440AF3D69DFF838
:1009D00050C1654582D17A688310012199409142C6
:1009E000A7D9BD686B6823F00308464503D8A8EB78
:1009F00006030F2B7EDCDFF82C91D7F80824D9F8FA
:100A000000300132334405EB080A00F02F8103F572
:100A100080530F3323F47F6B2BF00F0B5946204686
:100A200000F068FA411C024600F0EF80824500F2B7
:100A3000EA80D9F804105944C9F804100B4600F0B4
:100A40004B81D7F8081401311BBFA2EB0A0A5344AB
:100A5000C7F80824C9F8043012F0070300F0128127
:100A6000C3F108010A44C3F5805193440831A1EB56
:100A70000B01C1F30B0A514620460192009300F08E
:100A800039FA421CDDE9003200F04B81831A03EB96
:100A90000A0BD9F80400BA604BF001030AEB00011D
:100AA000BD425360C9F8041000F02281B8F10F0F65
:100AB00040F220816B68A8F10C0020F0070003F0E1
:100AC000010303436B604FF0050C2B180F28C3E99B
:100AD00001CC00F22D8153681546D9F82C208A42AA
:100AE000D9F8302038BFC9F82C108A4238BFC9F86D
:100AF00030108CE0AA1943F0010346F001066E6045
:100B00002046BA60536000F0CFF90835284603B09C
:100B1000BDE8F08FD9681A449DE600BF300400207C
:100B20003804002024100020B2F5206F4FEA522331
:100B300063D3142B00F2B88003F15C01C9005B336E
:100B400007EB010E7958AEF1080E8E4500F091804A
:100B50004B6823F00303934202D989688E45F7D18D
:100B6000D1F80CE07A68C5E9021ECEF80850CD60D5
:100B7000DAE6142B59D9542B00F29E80330B03F183
:100B80006F0003F16E0CC3008EE60EF1010E1EF035
:100B9000030F05F108057FF4D9AE51E04244454604
:100BA0005368D8F80C1043F00103536055F8083F20
:100BB0002046D9608B6000F077F9F7E6F00806F17F
:100BC00008023BE62A442046536843F00103536081
:100BD000083500F069F9E9E6A919204646F0010652
:100BE00043F001046E60C7E90411C1E902CC4C6016
:100BF000AB5000F059F90835D8E6930903F13901F3
:100C0000C90038339CE7BD4260D0BD686B6823F0F3
:100C1000030B5E45ABEB060302D80F2B3FF76AAF21
:100C2000204600F041F90025C0E603F15C0003F125
:100C30005B0CC30038E659F808394B4540F0968004
:100C400010F0030F00F1FF30F5D17B6823EA0103B8
:100C50007B60490099423FF6C4AE19B9C1E649002C
:100C60000EF1040E1942FAD070466BE603F1100B38
:100C7000D4E69A104FF001087B6808FA02F21A4392
:100C80007A6070E702EB0B014942C1F30B0A51464F
:100C900020460193009200F02DF9431CDDE900236A
:100CA0007FF4F4AE9A46F4E6542B26D8130B03F1E6
:100CB0006F01C9006E3343E7B3F5AA7F26D8F30B63
:100CC00003F1780003F1770CC300EDE5D9F80430A7
:100CD0005B44C9F80430B4E6CAF30B0000287FF483
:100CE000B0AEBD6808EB0B0343F001036B60F4E6A4
:100CF0001546F2E60123536092E7B3F5AA7F21D8A7
:100D0000D30B03F17801C900773319E740F254524D
:100D1000934221D8B30C03F17D0003F17C0CC30096
:100D2000C2E5083B9B44ABEB020B4FF0000AB0E678
:100D300005F10801204605F05FFFBD68D9F80410F1
:100D40006B68CAE640F254518B420BD8930C03F106
:100D50007D01C9007C33F3E64FF47E737F204FF0B2
:100D60007E0CA1E54FF47E717E23E9E67B6870E797
:100D7000844641EA000313F003036DD1403A41D3A6
:100D800051F8043B40F8043B51F8043B40F8043B65
:100D900051F8043B40F8043B51F8043B40F8043B55
:100DA00051F8043B40F8043B51F8043B40F8043B45
:100DB00051F8043B40F8043B51F8043B40F8043B35
:100DC00051F8043B40F8043B51F8043B40F8043B25
:100DD00051F8043B40F8043B51F8043B40F8043B15
:100DE00051F8043B40F8043B51F8043B40F8043B05
:100DF00051F8043B40F8043B51F8043B40F8043BF5
:100E0000403ABDD2303211D351F8043B40F8043B94
:100E100051F8043B40F8043B51F8043B40F8043BD4
:100E200051F8043B40F8043B103AEDD20C3205D3A4
:100E300051F8043B40F8043B043AF9D2043208D09C
:100E4000D2071CBF11F8013B00F8013B01D30B880E
:100E500003806046704700BF082A13D38B078DD0EC
:100E600010F003038AD0C3F10403D21ADB071CBFBE
:100E700011F8013B00F8013B80D331F8023B20F828
:100E8000023B7BE7043AD9D3013A11F8013B00F861
:100E9000013BF9D20B7803704B7843708B788370E9
:100EA00060467047704700BF704700BF0EB400B582
:100EB00082B003AB816853F8042B019303F0D8F898
:100EC00002B05DF804EB03B0704700BF0FB400B58B
:100ED000074983B004AB086853F8042B8168019379
:100EE00003F0C6F803B05DF804EB04B0704700BF30
:100EF0000000002038B5074D0022044608462A604D
:100F000018F0A4F8431C00D038BD2B68002BFBD090
:100F1000236038BD5810002008B410B5002A9DB0D9
:100F2000044633DB4FF40273ADF81430029106919E
:100F300020AB17D0013A4FF6FF7104920792ADF83B
:100F400016101F9A019302A900F096FD421C01DAC7
:100F50008B232360029B00221A701DB0BDE8104055
:100F600001B070474FF6FF7104920792ADF816106A
:100F70001F9A019302A900F07FFD431C01DA8B2325
:100F800023601DB0BDE8104001B070478B230360A3
:100F90004FF0FF30F5E700BF0CB410B51F4B002930
:100FA0001C689CB035DB4FF40273ADF8143002902E
:100FB00006901FAB18D001394FF6FF7204910791CC
:100FC000ADF8162002A91E9A0193204600F054FDA8
:100FD000421C01DA8B232360029B00221A701CB092
:100FE000BDE8104002B070474FF6FF7204910791C0
:100FF000ADF8162002A91E9A0193204600F03CFD90
:10100000431C01DA8B2323601CB0BDE8104002B002
:1010100070478B2323604FF0FF30F5E7000000207E
:101020000CB410B59CB01EAB6FF00044CDE90614B3
:101030000291084953F8042B059102A901930494E5
:1010400000F01AFD029B00221A701CB0BDE810408F
:1010500002B070470802FFFF0EB410B59DB06FF0EC
:1010600000411FABCDE906010491094953F8042B57
:101070000290084C0868019302A9059400F0FCFC5A
:10108000029B00221A701DB0BDE8104003B07047EB
:10109000000000200802FFFF0EB410B59FB021AC85
:1010A0004FF4017154F8042B0192ADF81C10049018
:1010B000089000F085FA059009900B480B490C91B7
:1010C00000234FF6FF7C10931593019A0068ADF84A
:1010D0001EC0234604A9039401F02CFF1FB0BDE8F5
:1010E000104003B0704700BF000000206D110008E1
:1010F0000CB430B59FB022AC4FF4017354F8042BFC
:10110000019205460846ADF81C300491089100F0A4
:1011100057FA0C490C910346059309934FF6FF715A
:10112000002310931593ADF81E10019A03942846DE
:10113000234604A901F0FEFE1FB0BDE8304002B016
:10114000704700BF6D11000810B50C46B1F90E10C4
:1011500006F0B2FF002803DB236D0344236510BDB6
:10116000A38923F48053A38110BD00BF00207047E2
:101170002DE9F0410C46B1F90C101F46CB05054690
:1011800016460BD421F48051A1813B46B4F90E10D0
:1011900032462846BDE8F04104F038BAB4F90E10E2
:1011A0000223002206F048F8B4F90C10EAE700BF69
:1011B00010B50C46B1F90E1006F03EF8A389421C9A
:1011C0000EBF23F4805343F480532065A38110BDE8
:1011D000B1F90E1004F09ABA830710B5044610D185
:1011E0000268A2F1013323EA020313F0803F08D121
:1011F00050F8042FA2F1013323EA020313F0803FD9
:10120000F6D003781BB110F8013F002BFBD100F0A2
:1012100075F9204610BD00BF00000000000000006E
:10122000A2EB0300704700BF02780B78012A28BFA9
:101230009A42F5D16DE9044540EA0104CDE902671F
:101240006FF0000C4FEA447212B380EA010414F00C
:10125000070F6AD100F0070420F0070004F003052F
:1012600021F007014FEAC505F0E8042314F0040F4C
:10127000F1E804670CFA05F462EA040266EA04067F
:101280000AD063EA0403624667EA0407664603E09D
:10129000F0E80423F1E8046782FA4CF582EA0604D8
:1012A000A4FA8CF46CBB83FA4CF583EA0705A5FA23
:1012B0008CF595B950E9022351E9026782FA4CF5A1
:1012C00082EA0604A4FA8CF483FA4CF583EA070553
:1012D000A5FA8CF52543DBD09CB92DBAB5FA85F477
:1012E00024F0070427FA04F1DDE9026723FA04F386
:1012F00003F0FF0001F0FF01FDE80445A0EB010051
:10130000704724BAB4FA84F424F0070426FA04F1EE
:10131000DDE9026722FA04F202F0FF0001F0FF01AA
:10132000FDE80445A0EB0100704714F0030F3CD129
:1013300010F0030428D150F8082B51F8083B82FA2A
:101340004CF582EA0305A5FA8CF55DB950F8042C3A
:1013500051F8043C82FA4CF582EA0305A5FA8CF5B3
:10136000002DE8D02DBAB5FA85F424F0070423FA4D
:1013700004F122FA04F202F0FF0001F0FF01FDE89F
:101380000445A0EB010070474FEAC40420F00300BD
:1013900050F8082B21F0030151F8083B0CFA04F433
:1013A00062EA040263EA0403C9E710F003041AD0F6
:1013B000A1EB040120F00300E40750F8042B06D051
:1013C0000FD28B785FFAA2F4E41A06D12BB1CB7856
:1013D0005FFAB2F4E41A00D11BB920465DF8104B55
:1013E000704701F1040150F8042BCC0721F00301F0
:1013F00051F8043B48D824D222F07F4482FA4CF5BD
:1014000094EA1325A5FA8CF50AD165B951F8043B85
:1014100084EA0204B4EB036F0ED150F8042BEBE71F
:101420004FEA132355E035F07F454DD10878FDE8AC
:101430000445C0F1000070474FEA126203F0FF0359
:1014400047E002EA1C4482FA4CF594EA1345A5FAF7
:101450008CF50AD165B951F8043B84EA0204B4EB77
:10146000034F0CD150F8042BEBE74FEA134330E065
:1014700015EA1C4528D10B884FEA124229E04FEAB1
:10148000124203EA1C4324E002F0FF0482FA4CF506
:1014900094EA1365A5FA8CF50AD165B951F8043BB5
:1014A00084EA0204B4EB032F09D150F8042BEBE7D4
:1014B0004FEA13630DE015F0FF0F05D10B684FEAFB
:1014C000122223F07F4304E04FF00000FDE80445C2
:1014D000704712BA1BBA82FA4CF482EA0304A4FAE7
:1014E0008CF5B5FA85F402FA04F203FA04F34FEA34
:1014F0001260FDE80445A0EB1360704780EA01022A
:10150000844612F0030F4FD111F0030F32D14DF882
:10151000044D11F0040F51F8043B0BD0A3F101323C
:101520009A4312F0803F04BF4CF8043B51F8043B4F
:1015300016D100BF51F8044BA3F101329A4312F0C7
:10154000803FA4F101320BD14CF8043BA24312F0CE
:10155000803F04BF51F8043B4CF8044BEAD02346CB
:101560000CF8013B13F0FF0F4FEA3323F8D15DF87D
:10157000044B704711F0010F06D011F8012B0CF845
:10158000012B002A08BF704711F0020FBFD031F8BD
:10159000022B12F0FF0F16BF2CF8022B8CF8002044
:1015A00012F47F4FB3D1704711F8012B0CF8012BC7
:1015B000002AF9D1704700BF0000000000000000C1
:1015C00090F800F06DE9024520F007016FF0000C83
:1015D00010F0070491F820F040F049804FF000042B
:1015E0006FF00700D1E9002391F840F000F1080006
:1015F00082FA4CF2A4FA8CF283FA4CF3A2FA8CF33E
:101600004BBBD1E9022382FA4CF200F10800A4FAA4
:101610008CF283FA4CF3A2FA8CF3E3B9D1E90423F8
:1016200082FA4CF200F10800A4FA8CF283FA4CF32F
:10163000A2FA8CF37BB9D1E9062301F1200182FAE9
:101640004CF200F10800A4FA8CF283FA4CF3A2FAEF
:101650008CF3002BC6D0002A04BF04301A4612BAFD
:10166000B2FA82F2FDE8024500EBD2007047D1E900
:10167000002304F00305C4F100004FEAC50514F08F
:10168000040F91F840F00CFA05F562EA05021CBF60
:1016900063EA050362464FF00004A9E730B540EA6B
:1016A0000104A30701D1032A0FD8844601F1FF3EAC
:1016B00007E01EF8011F03F8011B541EC1B19C4630
:1016C00022466346002AF4D130BD0B4684461946B3
:1016D00053F8045BA5F1013424EA050414F0803FBB
:1016E000E4D1043A032A4CF8045B1946EFD8DDE74D
:1016F0006244002CE8D003F8011B9342FBD130BDBB
:10170000024A126801235C3200F002B80000002097
:10171000F0B4074610B33E468C4616F8010B01E0C4
:10172000A04216D01CF8014B002CF9D1D8B116F804
:10173000015B0C4601E0002BF9D014F8013B9D42FF
:10174000F9D14DB1002306F8013C16603846F0BCD3
:1017500070475BB13746DEE72E46F6E71768002F85
:10176000D9D13846F3E7F0BC1060704716603846B0
:101770003B70ECE70123FFF7CBBF00BF2DE9F04F33
:10178000814645488E4675461EF801CB10F80C4040
:1017900014F00804F7D1BCF12D0FE34654D0BCF18E
:1017A0002B0F08BF9EF800B06FF0004808BF05F18E
:1017B000020E1BB1102B4FD01F4604E0BBF1300FBF
:1017C00055D00A231F460025B8FBF7F6284607FB2D
:1017D000168A07E0864215D329D007FB00C00125F1
:1017E0001EF801BBABF1300CBCF1090F06D9ABF10F
:1017F000410CBCF1190F08D8ABF1370C63450DDD76
:10180000002DE7DA4FF0FF35EAE7ABF1610CBCF1F0
:10181000190F03D8ABF1570C6345F1DC002D0BDB3E
:1018200004B140420AB195BB1160BDE8F08FE245BA
:10183000D3DA4FF0FF35D3E72223C9F800301AB3CB
:101840000EF1FF314046EFE79EF800B04FF0004840
:1018500005F1020E0124ACE7BBF1300FACD19EF8CC
:10186000000000F0DF00582807D01F46ABE79EF8C5
:10187000003003F0DF03582B0BD110279EF801B086
:101880003B460EF1020E9EE74046BDE8F08F8046D3
:10189000D6E708231F4696E715990108012B02D0C9
:1018A000242B00D86AE710B5FEF7A2FF16230360C9
:1018B000002010BD012A08D0242A06D884460648F4
:1018C000134600680A46614658E710B5FEF790FFD8
:1018D00016230360002010BD00000020012A08D05C
:1018E000242A06D884460648134600680A466146FC
:1018F00044E710B5FEF77CFF16230360002010BDFF
:10190000000000202DE9F04707464B480E463546BB
:1019100016F801CB10F80C4014F00804F7D1BCF114
:101920002D0FE64658D0BCF12B0F04BF96F800E00F
:10193000AE1C5BB1102B54D04FF0FF38B8FBF3F85E
:1019400003FB08FA6FEA0A0A994608E0BEF1300F75
:101950005AD00A23DFF8E4804FF0050A99460025A3
:10196000284607E0404515D829D009FB00C00125CD
:1019700016F801EBAEF1300CBCF1090F06D9AEF14F
:10198000410CBCF1190F08D8AEF1370C63450DDDE1
:10199000002DE7DA4FF0FF35EAE7AEF1610CBCF15C
:1019A000190F03D8AEF1570C6345F1DC002D0BDBAA
:1019B00004B140420AB16DB91160BDE8F087D44569
:1019C000D3DD4FF0FF35D3E722233B604FF0FF30EC
:1019D000002AF2D0711EEFE796F800E00124AE1C59
:1019E000A7E7BEF1300F21D1307800F0DF00582892
:1019F00016D14FF0100996F801E04FF00F0A0236A9
:101A00006FF070484B46AAE7337803F0DF03582B9A
:101A1000EFD008234FF0070A6FF0604899469EE721
:101A200099466FF070484FF00F0A98E74FF00F0A91
:101A30006FF07048994692E715990108999999199C
:101A400060E700BF10B4044C8446134620685DF87C
:101A5000044B0A46614655E70000002010B4044CD0
:101A60008446134620685DF8044B0A46614649E700
:101A700000000020000000002DE9F04F2DED068B46
:101A8000BBB088469146099309EE100A05F0CCFBDD
:101A9000036810931846FFF793FDB8F80C300F90C9
:101AA000180604D5D8F81030002B00F0E7869FED1B
:101AB000867B0023CDE91E338DED0C7B2AAA0B9388
:101AC0001D9292460E931193069399F80030002BC5
:101AD00000F087814C4604E014F8013F002B00F031
:101AE000C580252BF8D1B4EB090540F0C3802378DD
:101AF000002B00F0768100234FF0FF3265788DF8DF
:101B0000573004F101091846059207939B4609F1E5
:101B10000109A5F12002582A00F2DA80DFE812F06C
:101B20005E02D800D8005902D800D800D800D800EA
:101B3000D800D8000C025402D80017021C02D800AA
:101B40004F025900590059005900590059005900D5
:101B500059005900D800D800D800D800D800D800C3
:101B6000D800D800D800D80036026C01D8006C012B
:101B7000D800D800D800D8006602D800D800780075
:101B8000D800D800D800D800D8006800D800D80005
:101B90007902D800D800D800D800D800D800D800E2
:101BA000D800D800D8006B02CF016C016C016C0129
:101BB0009A02CF01D800D8000E03D800F8027A00AC
:101BC000DD02D802D800B602D8006A00D800D800DA
:101BD0009F02A5F13002002119F8015B01EB8101A0
:101BE00002EB4101A5F13002092AF5D9079190E7EE
:101BF0004BF0100B1BF0200100F05381099B0733C1
:101C000023F00703596853F8080B099301230EE0EA
:101C10004BF0100B1BF0200100F03681099B0733BD
:101C200023F00703596853F8080B09930023002495
:101C30008DF85740059A561C00F08F822BF08006D5
:101C4000039650EA010640F08682002A40F00E8397
:101C5000002B40F03C851BF00103089300F0AF859A
:101C600030238DF8A7300DF1A7069BE2B4EB0905F0
:101C700000F0B7801F9B2B441F931E9B0133072B43
:101C8000CAE900951E9305DC0AF1080A069B2B445D
:101C900006932CE719EE100A1DAA414607F098FE9C
:101CA00018B90DF1A80AF1E7B046B8F80C3013F0F6
:101CB000400F069B18BF4FF0FF33069306983BB0CA
:101CC000BDEC068BBDE8F08F0000000000000000B6
:101CD000002B40F0E987002D00F0838000238DF871
:101CE000573001238DF880500493089320AE0023D1
:101CF000CDF80CB005930A93039B13F0020302D0B6
:101D0000049A02320492039A12F0840B05D1079AC6
:101D10000499571A002F00F3A0831F9C9DF85720A9
:101D20008AB11E9A0DF1570101320134CAF8001030
:101D3000072A4FF001011F941E92CAF8041000F305
:101D4000D9830AF1080A83B11E9B16AA0133023413
:101D5000CAF80020072B4FF002021F941E93CAF806
:101D6000042000F3D6830AF1080ABBF1800F00F0CB
:101D70009982059B089AA3EB020BBBF1000F00F3BD
:101D8000D482039BDF0500F11682089BCAF8043059
:101D90001C441E9BCAF800600133072B1F941E933E
:101DA00000F34E830AF1080A039B5B0705D5079BE6
:101DB000049A9D1A002D00F3B983DDE906320499D7
:101DC0008A42ACBF9B185B180693002C40F0E88257
:101DD00000231E9399F800300DF1A80A002B7FF420
:101DE00079AE1F9B002B3FF460AF19EE100A1DAABD
:101DF000414607F0EDFD58E7002B41F00680099BB6
:101E0000073323F00703B3EC027B8DED0C7BDDE998
:101E10000C67099327F0004308EE903A08EE106A29
:101E2000B64B51EC180B4FF0FF320BF05BFF002864
:101E300040F0C784B14B51EC180B4FF0FF320BF060
:101E400033FF002840F0BD8400220023304639468D
:101E50000BF020FF002840F0FC869DF85740A84E6C
:101E60002BF080030393A74B0022472DC8BF1E46CB
:101E70000323CDE9043208930A92002C3FF43CAFCF
:101E8000049B0133049337E71BF0100348D11BF088
:101E9000400145D0099A52F8040B0992194680B2C4
:101EA000C5E61BF0100341D11BF040013ED0099A5A
:101EB00052F8040B0992194680B20123B7E6002BB1
:101EC00040F0A7871BF0200F099B68D0073323F051
:101ED00007031A465B6852F8080B09921946002B53
:101EE000C0F23D84059B013300F085852BF0800313
:101EF000039350EA01039DF8574000F0E483DDF8B6
:101F00000CB00A2871F1000380F0108530300123F5
:101F10008DF8A700CDF80CB008930DF1A70641E1AC
:101F2000099B53F8040B09930B4680E6099B53F871
:101F3000040B099301237AE6099A52F8041B0791CE
:101F4000002980F23784079909924942079199F84C
:101F500000504BF0040BDAE5494611F8015B2A2DDD
:101F600000F0C787A5F13002092A894698BF0021F1
:101F700000F23B8719F8015B01EB810102EB4101A3
:101F8000A5F13002092AF5D90591C2E5002B40F0F0
:101F900044874BF0100B1BF0200F099B96D153F890
:101FA000040B09931BF0100F40F0D4831BF0400F7B
:101FB00000F0D08340F3C0310B4600B28FE799F8B0
:101FC00000504BF0800BA2E599F8005001232B2024
:101FD0009DE599F800504BF0010B98E599F80050F9
:101FE00000287FF494AD0123202090E599F800505B
:101FF0004BF0080B8BE5099B00228DF8572053F816
:10200000042B099301238DF880200493089320AEBC
:102010006DE6002B40F0F1863B4B0E931BF0200148
:1020200025D0099B073323F00703596853F8080BA1
:1020300009931BF0010F0BD050EA010308D03023A5
:102040008DF858308DF859504BF0020B0223EEE515
:102050000223ECE599F800504BF0400B57E5002BBC
:1020600040F0C786294B0E931BF02001D9D11BF0FD
:10207000100340F06A831BF0400100F06683099A68
:1020800052F8040B0992194680B2D2E7099C059BCD
:1020900054F8046B00278DF85770002E00F0E5848B
:1020A0005A1C00F0FC831A463946304605F0E8F920
:1020B000002800F08286831B089323EAE3730994C7
:1020C00005979DF85740CDF80CB004930A97D4E6D5
:1020D00099F800504BF0200B19E5099B53F8040BBD
:1020E0000993302378258DF85830084B0E934BF028
:1020F000020B8DF859500021022398E5FFFFEF7F76
:10210000DC9E0108E09E0108009F0108EC9E01088A
:10211000002B40F076861BF0200F40F099831BF0D7
:10212000100F40F0F5831BF0400F00F0F183099B86
:10213000069953F8042B09931180C6E499F80050CE
:102140006C2D03BF99F801504BF0200B09F10109E8
:102150004BF0100BDBE4DDF80CB0012B3FF4D1AEFB
:10216000022B00F08B802AAE00F00703C00840EA83
:102170004170C908303350EA0107324606F8013D84
:10218000F2D11BF0010F00F08780302B00F084802B
:102190003023023A06F8013C2AAB9B1ACDF80CB06A
:1021A00008931646059B089A9342B8BF13460493BA
:1021B00000230A9361E6652D40F3FC80DDE90C0104
:1021C000002200230BF05CFD002800F0EA811E9B3A
:1021D000AA4ACAF80020013301340122072B1F94B8
:1021E0001E93CAF8042000F316840AF1080A179B0C
:1021F0000B9A934203DB039BD8077FF5D5AD0F9B6A
:10220000109A1C44CAE900231E9B1F940133072B1C
:102210001E9300F31C840AF1080A0B9B5D1E002D1F
:102220007FF7C2AD102D1E9B954F40F3E88319EE4A
:1022300010BA102605E00AF1080A103D102D40F3EF
:10224000DE8301331034072BCAE90076CDE91E3452
:10225000F1DD1DAA4146584607F0BAFB00287FF47D
:1022600024ADDDE91E340DF1A80AE6E7012B00F0EC
:102270006F85022BDDF80CB07FF475AF0E9A2AAE95
:1022800000F00F030009D35C06F8013D40EA01703D
:10229000090950EA0103F3D12AAB9B1BCDF80CB01E
:1022A00008937FE7079B049AA3EB020BBBF1000F97
:1022B0007FF75FADBBF1100F1E9A714F27DD2146EE
:1022C000102319EE104A06E0ABF1100BBBF1100F12
:1022D0000AF1080A1ADD01321031072ACAE900732F
:1022E000CDE91E21F0DD1DAA414620460DF1A80AC8
:1022F00007F06EFB00287FF4D8ACABF1100BBBF1FC
:10230000100FDDE91E214FF01003E4DC0C46013212
:102310005C44072ACDE91E24CAF80070CAF804B04C
:1023200000F387830AF1080A23E5BBF1100F1E9A18
:10233000534F27DD2146102319EE104A06E0ABF17A
:10234000100BBBF1100F0AF1080A1ADD013210312F
:10235000072ACAE90073CDE91E21F0DD1DAA414616
:10236000204607F035FB00287FF49FACABF1100B43
:10237000BBF1100FDDE91E210DF1A80A4FF010038B
:10238000E4DC0C4601325C44072ACDE91E24CAF87D
:102390000070CAF804B000F3CA810AF1080AF0E438
:1023A00019EE100A1DAA414607F012FB00283FF45F
:1023B0000FAD7AE40B9B012B40F366811E9DCAF89A
:1023C0000060013501340123072D1F941E95CAF8C2
:1023D000043000F3CE810AF1080A0F9B109A0135F0
:1023E0001C44072DCAE90023CDE91E5400F3D48113
:1023F0000AF1080ADDE90C01002200230BF040FC81
:10240000002840F069810B9B0135013B01361C44DB
:10241000072DCAF800601E95CAF804301F9400F317
:1024200044810AF1080A119BCAF8043001351C44A2
:10243000072D19ABCDE91E54CAF800307FF7B2ACB6
:1024400019EE100A1DAA414607F0C2FA00287FF4CF
:102450002CAC1F9C0DF1A80AA6E4102FDDE91E216B
:1024600039DD1293CDF84C901024B1460B46464608
:10247000B8462F4619EE105A0BE000BF1C9F01080A
:10248000C0980108A8F11008B8F1100F0AF1080A65
:1024900019DD0132BE491033072ACAE90014CDE91B
:1024A0001E23EFDD1DAA314628460DF1A80A07F0CC
:1024B0008FFA00287FF4F8ABA8F11008B8F1100FDC
:1024C000DDE91E23E5DC3D4619464746129BB04632
:1024D0004E46DDF84C90CAF8047001327C18072A89
:1024E000AB49CAF80010CDE91E2400F374820AF14A
:1024F000080A13E419EE100A1DAA4146129307F0C8
:1025000067FA00287FF4D1AB1F9C129B0DF1A80A3B
:1025100019E419EE100A1DAA414607F059FA0028DD
:102520007FF4C3AB1F9C0DF1A80A1EE4102D1E9B67
:1025300020DD19EE107A102604E0103D102D0AF16E
:10254000080A17DD0133924A1034072BCAE9002626
:10255000CDE91E34F1DD1DAA414638460DF1A80A29
:1025600007F036FA00287FF4A0AB103D102DDDE90E
:102570001E34E7DC0133864ACAF804502C44072B8A
:10258000CDE91E34CAF800207FF717AC19EE100A07
:102590001DAA414607F01CFA00287FF486AB1F9C59
:1025A0000BE41799002940F3E181DDE90A379F42E6
:1025B000A8BF1F46002F0BDD1E9B01333C44072B99
:1025C000CAE900671F941E9300F3D7830AF1080A33
:1025D0000A9D002FA8BFED1B002D00F37081179DF1
:1025E0000B9B9D4280F23E810F9B109A1C44CAE9CE
:1025F00000231E9B1F940133072B1E9300F344837B
:102600000AF1080A0B9B0A9A5D1B9F1AAF42A8BFEA
:102610002F46002F0EDD1E9BCAF8047001331644AE
:102620003C44072BCAF800601F941E9300F3B58347
:102630000AF1080A002FA8BFED1B002D7FF7B4ABED
:10264000102D1E9B534F40F3DA8119EE10BA10265D
:1026500005E00AF1080A103D102D40F3D081013346
:102660001034072BCAE90076CDE91E34F1DD1DAA2E
:102670004146584607F0ACF900287FF416ABDDE977
:102680001E340DF1A80AE6E7039BDA073FF596AE84
:102690001E9DCAF80060013501340123072D1F94E7
:1026A0001E95CAF804307FF7BCAE19EE100A1DAAB9
:1026B000414607F08DF900287FF4F7AADDE91E54A2
:1026C0000DF1A80AAFE6059B002B40F041830023E3
:1026D000059308932AAE65E50B9B5E1E002E7FF7DF
:1026E000A2AE102E2B4F40F3CB81CDF814904FF0BB
:1026F000100B19EE109A05E00AF1080A103E102E90
:1027000040F3BC8101351034072DCAE9007BCDE9C7
:102710001E54F1DD1DAA4146484607F059F900282C
:102720007FF4C3AADDE91E540DF1A80AE6E719EE0D
:10273000100A1DAA414607F04BF900287FF4B5AAFC
:102740001F9C0DF1A80AFFF71CBB099B53F8040B53
:1027500009936EE4C1170B46002BBFF6C3AB404292
:102760004FF02D0461EB41018DF857400123FFF735
:1027700061BA19EE100A1DAA414607F029F900288E
:102780007FF493AADDE91E540DF1A80A25E600BFE7
:10279000B0980108C098010819EE100A1DAA414618
:1027A00007F016F900287FF480AADDE91E540DF128
:1027B000A80A1FE699F800500992FFF7A8B92AAEB7
:1027C000F0E4DDE90C0102460B460BF08BFA002821
:1027D00040F05183059B013325F02003049300F062
:1027E000D982472B00F09C80DDE90C014BF480720C
:1027F00000290392C0F232829DED0C7B0027B0EEDF
:1028000047AAF0EE67AA662D00F07A81462D00F007
:102810007781B0EE4A0AF0EE6A0A049B452B0ABFA4
:10282000059B059C5C1C1BAB019318AB009319EE38
:10283000100A17AB2246022103F00EF8672D064658
:1028400040F092821BF0010F00F0AC8134446FE144
:10285000099B069853F8041B0993C217C1E90002AB
:10286000FFF733B9039BD9073FF5BEAEDDE90A2375
:102870009F1A5D1BAF42A8BF2F46DBE619EE100A78
:102880004021FDF7CBFFC8F80000C8F81000002871
:1028900000F03E834023C8F81430FFF708B93046F3
:1028A00009940597CDF80CB0FEF78AFE20EAE07394
:1028B0009DF85740089004930A97FFF7DEBA102D51
:1028C0001E9BB54F40F3B8813A460596474619EE30
:1028D000106A4FF0100B904605E00AF1080A103D0F
:1028E000102D40F3A58101331034072BCAE9008B6A
:1028F000CDE91E34F1DD1DAA3946304607F068F8EF
:10290000002840F0A782DDE91E340DF1A80AE6E7B1
:10291000099B069953F8042B11600993FFF7D5B86A
:10292000059B002B08BF012305935DE7CDF80C90B4
:102930002AAEA1460A22002304460F46FDF79AFD5F
:10294000303206F8012D0023204639460A22FDF7D1
:1029500091FD0A2C77F10003ECD22AAB9B1B4C466D
:102960000893DDF80C90CDF80CB01BE41E9B8B4A4D
:10297000CAF80020013301340122072B1F941E9353
:10298000CAF8042000F372810AF1080A002940F015
:102990008380039B0B9A03F0010313433FF404AAC3
:1029A0000F9B10991A19CAE900131E9B1F9201333D
:1029B000072B1E9300F37C810AF1080A0B99CAF8D1
:1029C000006001338C18072BCDE91E34CAF80410BF
:1029D0007FF7E8A934E519EE100A1DAA41461293C3
:1029E00006F0F6FF00287FF460A91F9C129B0DF1F2
:1029F000A80AFFF793B99DF85740FFF782BA013351
:102A00002C44072BCAF80070CAF80450CDE91E34D4
:102A10007FF7C8A914E519EE100A1DAA414606F071
:102A2000D7FF00287FF441A91F9C0DF1A80AFFF7EA
:102A3000DEBB19EE100A1DAA414606F0C9FF0028A8
:102A40007FF433A91F9C0DF1A80AFFF792B919EE84
:102A5000100A1DAA414606F0BBFF00287FF425A9F5
:102A60001F9C0DF1A80AFFF7D8BB062B28BF062331
:102A7000CDE908344A4E0493FFF739B9DDF81490D4
:102A8000CAF8007001353444072DCDE91E54CAF848
:102A900004607FF7C6AC08E60F9B10981A19CAE9C4
:102AA00000031E9B1F920133072B1E9300F300812E
:102AB0000AF1080A002981DA4D421031364F80F2BE
:102AC000B08119EE10BA102405E00AF1080A103D91
:102AD000102D40F3A68101331032072BCAE9007490
:102AE000CDE91E32F1DD1DAA4146584606F070FFC1
:102AF00000287FF4DAA8DDE91E320DF1A80AE6E726
:102B0000059CB0EE4A0AF0EE6A0A1BAB019318ABC3
:102B10000093224617AB19EE100A032102F09CFE27
:102B2000064604193378302B00F09781179B1C441C
:102B300051EC1A0B002200230BF0A2F8002840F001
:102B4000B1801B9BA34206D230215A1C1B921970E4
:102B50001B9B9C42F9D89B1B0B93049B472B28D0B3
:102B6000662D40F0DE81179B059A0A93002B0BF02F
:102B7000010B40F3F1805BEA020140F09F810A9B68
:102B800004930893002F00F0F3802D238DF8573025
:102B900000230593FFF774B9C09801081C9F010832
:102BA000149F01081B9B9B1B0B93049B472B40F01E
:102BB000B881179B0A93D91C11DB059A93420EDC4E
:102BC000DDE90A329342C0F204811BF0010F40F0AC
:102BD000638123EAE372049208936725D2E7023DFA
:102BE0000A9A8DF86450531E002B1793B6BFC2F19A
:102BF00001032B222D22092B8DF8652074DC303344
:102C00008DF8673030238DF86630042311930B9ACA
:102C1000119B012A1344089340F34781089B0F9AA4
:102C20001344089323EAE373049300230A93A9E768
:102C30004246059EB846174601332C44072BCDE982
:102C40001E34CAF80070CAF8045040DC0AF1080AC1
:102C5000C5E42D248DF85740FFF701B901F1004379
:102C60000AEE100A0AEE903A2D27CCE519EE100A6A
:102C70001DAA414606F0ACFE00287FF416A817995D
:102C80001F9C0DF1A80A81E619EE100A1DAA414603
:102C900006F09EFE00287FF408A8179D1F9C0DF1EA
:102CA000A80AAFE4234656E78DF85700FFF713B89C
:102CB00019EE100A1DAA414606F08AFE00287EF48D
:102CC000F4AFDDE91E3217990DF1A80AF2E619EE0C
:102CD000100A1DAA414606F07BFE00287EF4E5AFEF
:102CE0001F9C0DF1A80A7AE40DF17304DFF840C2CD
:102CF000224610468CFB0321DA17C2EBA10202EB3D
:102D00008201A3EB4101303100F8011C194663290F
:102D1000134600F1FF32ECDC3033D9B2831E9C4203
:102D200002F8011C40F2F18013460DF1660201E049
:102D300013F8011B02F8011B9C42F9D10DF1750338
:102D40000DF166021B1A134419AA9B1A11935EE730
:102D5000DDF80CB0FFF7DAB85BEA020340F0B680AA
:102D60000123049308930DE7472D3FF46BAD6DE508
:102D70009DF857400597FFF780B819EE100A1DAA75
:102D8000414606F025FE00287EF48FAF1F9C0DF112
:102D9000A80A1DE40623059326E519EE100A1DAACC
:102DA000414606F015FE00287EF47FAF179D0B9B71
:102DB0001F9C5D1B0DF1A80A3CE4059B0994CDF80E
:102DC0000CB09DF857400493089305900A90FFF7C4
:102DD00054B80F9A0B9B13440A9A0893002A7DDD7E
:102DE00023EAE37304936725CCE600220592FEF7FD
:102DF00090BE8DF85700FFF735B98DF85700FFF7F3
:102E00000BB98DF85700FFF786B98DF85700FEF71C
:102E1000F6BF8DF85700FFF755B88DF85700FFF74C
:102E2000B8B801332A44072BCDE91E32CAF8007026
:102E3000CAF804507FF7C0AD19EE100A1DAA41462A
:102E400006F0C6FD00287EF430AFDDE91E320DF13C
:102E5000A80AB3E5B846FEF728BF51EC1A0B0022CA
:102E600000230AF00DFF00287FF460AE059BC3F13C
:102E7000010317935BE60D9B2B4E002BB8BF2D244F
:102E80002BF080030393A8BF9DF85740274BB8BF92
:102E90008DF85740FEF7E8BF0A9B0F9A134408933A
:102EA00023EAE373049367256CE61BF001020A92A0
:102EB0007FF4B4AE23EAE373049363E60F990B4403
:102EC0001A4422EAE273089204935BE60F9B0133F3
:102ED0001A4422EAE2730892049353E60A9B089A82
:102EE000C3F101031A4422EAE273089204936725AE
:102EF00048E6099A99F80150894652F8041B09924C
:102F000041EAE1710591FEF702BE022311937EE6CC
:102F100019EE102A0C2313604FF0FF330693FEF7CF
:102F2000CDBE179B0A935BE6E49E0108E89E01086C
:102F3000676666662DE9F04F8B46B1F90C10ADF56A
:102F4000317D8E048146089309D4DBF8643041F466
:102F5000005123F40053ABF80C10CBF864309246C8
:102F60001AF8012B1392002A00F02A870023734FCE
:102F700009930A93079398460493BB5C13F00803E4
:102F800072D1252A60D19AF800001E461D46A0F194
:102F900025020AF10101532A61D8DFE812F054003A
:102FA000600060006000600071046000600060000C
:102FB00060006000AE00AE00AE00AE00AE00AE003D
:102FC000AE00AE00AE00AE006000600060006000C9
:102FD0006000600060006000600060000D04BA00E6
:102FE0006000BA00600060006000600032046000B1
:102FF0006000040460006000600060006000600029
:1030000060006000A10360006000160460006000C2
:103010006000600060006000600020040F04BA00DF
:10302000BA00BA003C044604600060004D04600031
:103030005A040604250460006000280460002B0484
:1030400060006000A1038A46DBF80430002B3DDD00
:10305000DBF800301AF8012C1978914225D0049839
:103060000DF5317DBDE8F08FDBF804200EE0DBF8D4
:1030700000301A78BA5C150703F101030ED5DBF8AE
:103080000420013ACBE9003208F10108002AEEDC05
:103090005946484607F086FA0028E8D01AF8012B6E
:1030A0001392002A7FF469AFD9E70133CBF80030DF
:1030B000DBF80430013BCBF804301AF8012B1392F3
:1030C00008F10108002A7FF458AFC8E7594648467E
:1030D00007F068FA0028BBD0049A002A00F0CE86D8
:1030E000BBF80C3013F0400F18BF4FF0FF320492C2
:1030F00004980DF5317DBDE8F08F16F08F0FAED13D
:1031000005EB850500EB4505303D9AF801008A4640
:103110003DE78A460424DBF80420002A40F3EE82CF
:10312000720640F1F782621E032A00F2E786DFE8AA
:1031300012F0CC018701D300070000BF15990108E8
:103140004846039304F070F86A1E03680D93B2F5C5
:10315000AE7F039B40F2F4836FF4AE7C05EB0C0270
:10316000109240F25D15002258A946F4F0660B91CA
:103170000C46CDF838A059461192CB460F920692D4
:103180000C9203969A46914608680278A2F12B0C9D
:10319000BCF14E0F50D8DFE81CF0E6014F00E6010D
:1031A0004F004F008C029700970097009700970000
:1031B00097009700970097004F004F004F004F0077
:1031C0004F004F004F00DF014F004F004F006802DB
:1031D00061024F004F0007024F004F004F004F00A9
:1031E000EE014F004F004F004F004F00D8014F003D
:1031F0004F004F004F00D1014F004F004F004F00D4
:103200004F004F004F00DF014F004F004F0068029A
:1032100061024F004F0007024F004F004F004F0068
:10322000EE014F004F004F004F004F00D8014F00FC
:103230004F004F004F00D1010D9B93F800C0944503
:1032400016D1039B9E0513D523F420730393069B8D
:103250000C9304F8012B013D4A68013A002A08F159
:1032600001084A6040F3258301300860002D8BD1AE
:103270004A46D9468B460699039E5346DDF838A048
:10328000002940F05A83013A012A40F2E9855A1E8A
:10329000062A00F2A281022B40F21986032B00F0CD
:1032A0009C81043BDBB2DD430393254414F8011DEC
:1032B0005A46484607F036F9A542F7D1039B08F174
:1032C000FF38A8EB030888E119EB0A0FD0D1039B64
:1032D00023F4C0730393BCE76B1EB3F5AE7F40F2DB
:1032E00022836FF4AE72AB18069340F25D1558ACB2
:1032F00000235946D346C246DDF81C800B9446F4A1
:10330000586603930A681078A0F12B034D2B60D800
:10331000DFE813F03B025F003B025F005F00BF028B
:10332000C901C901C901C901C901C901C9014102D4
:1033300041025F005F005F005F005F005F005F00B1
:103340004E004E004E004E004E004E005F005F00EB
:103350005F005F005F005F005F005F005F005F0075
:103360005F005F005F005F005F005F005F002E0294
:103370005F005F005F005F005F005F005F005F0055
:103380004E004E004E004E004E004E005F005F00AB
:103390005F005F005F005F005F005F005F005F0035
:1033A0005F005F005F005F005F005F005F002E0254
:1033B000B8F10A0F0DDD26F4386604F8010B4B68EE
:1033C000013B002B4B6040F3808201320A60013DDB
:1033D00098D1F005CDF81C80D046DA468B4607D54B
:1033E0000B9B9C4200F2B0840B9B9C423FF437AE97
:1033F00016F0100240F07A820B99079B099D22700B
:103400004846A847B10600F16982720700F1358489
:1034100016F0010240F06282B30740F15F82AE4BCA
:10342000099999424846079B0B9900F03C8506F0A4
:10343000CDF9089B53F8042B0893C2E9000152E22E
:10344000002D08BF4FF0FF35F10700F18382F10630
:1034500040F13183DBF800301A78BA5C12073FF58F
:103460001DAE0133CBF80030DBF80430012D03F141
:10347000FF33CBF8043008BF08F101083FF40EAE6B
:10348000012412E0DBF800301A78BA5C160703F169
:10349000010312D4CBF80030DBF804300134013BD7
:1034A000A542CBF8043000F06784002BEADC5946D3
:1034B000484607F077F80028E4D0A0441AF8012B1A
:1034C0001392002A7FF459ADC9E5002D08BF4FF0D3
:1034D000FF35F20700F13783F00640F1A182DBF8F7
:1034E000003018AE1A78B25C002A3FF4B8AD013350
:1034F000CBF80030DBF80430012D03F1FF33CBF8BB
:10350000043011D1D9E7DBF800301A78B25C01330E
:10351000002AD2D0CBF80030DBF804300134013B74
:10352000A542CBF80430C8D0002BECDC5946484605
:1035300007F038F80028E6D0A044BFE7BAF1070F3B
:103540007FF496AE4FF0080A83E6BAF1060F7FF4D7
:103550008FAE4FF0070A7CE6B9F1010F7FF488AE19
:103560004FF0020975E6039B1E067FF581AE23F03E
:10357000800303936DE6B9F1000F40F0CD81069B07
:1035800033B9039B03F4E06CBCF5E06F00F0FE83FD
:10359000BAF1010F03D0BAF1040F7FF469AE0AF15A
:1035A000010A5FFA8AFA54E6BAF1000F40F0AB81E3
:1035B000069B002B40F0BA81039B03F4E06CBCF542
:1035C000E06F00F0DC834A46013A012AD946039EA7
:1035D000DDF838A08B4640F24384F00513D5710521
:1035E00000F1518414F8011C652904F1FF3308F13E
:1035F000FF3502D0452940F033835A464846A84655
:103600001C4606F08FFF16F010027FF447AD06F45B
:10361000C063B3F5806F227000F09F830F9B002B77
:1036200040F0518300220B99484605F03DFFF20718
:1036300055EC104B02D4B30740F12583089B53F897
:10364000042BC2E900450893049B1AF8012B13923E
:1036500001330493002A7FF490AC00E5BAF1020F25
:103660007FF406AE4FF0030AF3E5039B03F4A06C6E
:10367000BCF5806F06D05E057FF5FAAD069B002B8A
:1036800000F0E583039B9B0504D4069B0C9E1194DC
:103690009B1B0F93039B23F4F06646F4C0730393C4
:1036A00000230693D5E50D4B26F4386633F91880D0
:1036B00083E6039BDE057FF507AE23F080030393CB
:1036C000069B01330693109B002B3FF4C4AD109B67
:1036D000013B1093C0E500BF411A0008D0980108D3
:1036E00046F40076984A099210220792DBF80420EB
:1036F000002A8A464FF003043FF712AD5946484668
:10370000039306F04FFF039B00287FF4E5AC72069D
:103710003FF509ADDBF800100A78BA5C10077FF5B9
:1037200002AD03935B460A46C346A0461C4604E02E
:1037300022601378FB5C190714D56368013B002BEA
:103740000BF1010B636002F10102F1DC21464846F6
:1037500006F028FF002840F0F38122681378FB5C14
:103760001907EAD42246039B4446D8469346DAE436
:1037700006F4C063B3F5007F7FF42BAE26F4007629
:1037800046F4A0664FF0100817E633067FF521AE29
:1037900026F0800611E66D4B33F91880B8F1080F5A
:1037A0003FF709AE15E646F00106674A099208227E
:1037B0008A4607920324AEE446F00106644A099261
:1037C0000A228A4607920324A5E418A8039304F06A
:1037D00075FE46F04006039B824601249BE446F0BA
:1037E00040068A46002496E446F408767AE78A463C
:1037F000022490E4544A09920A228A46079203243A
:1038000089E430077FF42BAC9AF8010046F00206F9
:103810008A46FFF7BCBB32077FF421AC9AF801005F
:1038200046F004068A46FFF7B2BB494A09920022D5
:103830008A46079203246EE434077FF410AC9AF8AA
:1038400001006C2800F0908246F001068A46FFF7DE
:103850009EBBF30600F1FE81750700F12B82F40791
:1038600000F1B182B00740F1AE82089B53F8042BFF
:1038700008934FEAE8738A46C2F8008053600DE46B
:1038800035437FF4ECAB9AF8010010268A46FFF727
:103890007EBB33057FF591ADB8F1000F03D146F43F
:1038A00000764FF00808730540F1C88126F4B06631
:1038B00083E55846059106F075FE059900287FF4CA
:1038C000D7AC002D7FF460ACD2E44846059106F0F9
:1038D00069FE059900283FF47AAD7AE5089B53F814
:1038E000042B10600893049B013304930B9B1AF87C
:1038F000012B1392E41A039B23449844002A7FF47B
:103900003CABFFF7ACBBBAF1030F3FF448AEBAF1E2
:10391000050F3FF444AEABE4B9F1020F7FF438AECB
:103920004FF0030995E400230693E0E45346039E19
:10393000DDF838A04A46D9468B4626F48076A2E4C4
:10394000002210920FE400BF411A0008D09801082D
:103950009D18000816F0100640F07F81089B53F870
:10396000042B03920893DBF800301B78FB5C13F008
:10397000080440F0DF810596CDF818A003F02CFC78
:10398000A0422E463FF4A8ABDBE9003213F8011B3E
:10399000013ACBE900320A9B58A8032B015504F1E8
:1039A000010A16AD02D12B68042B04D00822002195
:1039B0002846FCF789FC58AA0399009553464846C7
:1039C00003F0F0FC421C0A903FF486AB002840F064
:1039D000E481039A106003F0D1FB002840F00B82D1
:1039E000D044013E059B002B40F01882039A04321C
:1039F00003929A46DBF80430002B40F3ED81DBF8AC
:103A000000301B78FB5C180700F19281002E00F05B
:103A10008F8103F0E1FB5446A042B5D1FFF75CBBB8
:103A2000DBF800200899137851F8040B039018AEC6
:103A30000591F35C002B3FF412ABDBF80430013B43
:103A4000CBF80430531CCBF800300446137804F84C
:103A5000013B012D21D0054411E0DBF800301A783C
:103A6000B25CD2B1DBF80420013ACBF804205A1C36
:103A7000CBF800201B7804F8013BAC420DD0DBF8FA
:103A80000430002BE9DC5946484606F08BFD00283F
:103A9000E3D0039BA3423FF41FAB039BE61A3FF422
:103AA000DEAA049B01330493059B08930023B044D2
:103AB0002370FFF7F3BA089B1A46DBF8003052F880
:103AC000046B03921A78BA5C100700F1EA81DBF804
:103AD0000420013ACBF804205A1CCBF800203446CD
:103AE0001B7804F8013B012D00F0E181354412E020
:103AF000DBF800301A78BA5C110716D4DBF8042022
:103B0000013ACBF804205A1CCBF800201B7804F8AB
:103B1000013BAC4209D0DBF80430002BE8DC59460D
:103B2000484606F03FFD0028E2D0A61BB044049BA7
:103B300001330493039B089300232370FFF7AEBA6D
:103B4000A346FFF7C9BA16F010030B9340F092801A
:103B5000089B53F8042B03920893CDE905580A9C5F
:103B6000CDF830A0002603F037FBB0423FF4B4AAF2
:103B7000DBE9003258A813F8011B8155013A032CE8
:103B8000CBE9003206F1010A0DF1500803D1D8F853
:103B90000030042B04D0082200214046FCF794FB9F
:103BA000039DCDF80080534658AA2946484603F0A5
:103BB000F9FB431C04463FF48FAA002840F097808D
:103BC0002860054616AB0822002118460A93FCF728
:103BD0007BFBB8490A9BD1F8E0102A4648460D46BF
:103BE00012A9A847012800F09A80002218AB9B5C1C
:103BF000002B00F01681069B032C5344069300F023
:103C00009180059B013B05930B9B13B9039B0433E8
:103C10000393DBF80430002B4FF0000670DD059BAA
:103C2000002BA0D1DDF81880DDF830A00A940B9BA2
:103C3000002B7FF433AA039A136005E5069B26F454
:103C4000607613B1013B06930135039B0133039367
:103C5000FFF7B5BB8A46FFF721BA13AB039382E6A1
:103C60005A46484606F05EFCA8F1020514F8021C0C
:103C7000A31EC2E413AB03936FE7089B53F8042B16
:103C8000089310802FE6089E56F8043B039310EE2D
:103C9000102A10EE100A2B4629460AF023F80028B5
:103CA00040F00C81204629460AF07AF8039B0896DA
:103CB0001860C9E4089B53F8042B08938A46A2F8BD
:103CC0000080FFF7EBB9119C21460A2301314846D9
:103CD000FDF7E4FD0F9BC21A0DF2B3239C4228BFEF
:103CE0000DF2B22474492046FDF7B6F99AE4851C1A
:103CF00040F0FC80DBF80430002B56463FF733AF32
:103D00005946484606F04EFC002888D0DDF8188059
:103D1000DDF830A00A94002E89D0FFF7DDB99DF8B8
:103D2000482063E7D8F80030042B7FF46AAF6BE7D4
:103D3000DDE9056A002E7FF4B1A9039B1E60049B98
:103D400001330493FFF7AAB914F8011C5A464846F8
:103D5000013C06F0E7FBFFF747BB0C9B06998B4243
:103D6000A3EB0102B8D15DE49AF8020046F0020626
:103D70000AF1020AFFF70BB9A844FFF78FB923F441
:103D8000F06303934FF0010AFFF763BA23F4F06383
:103D900003934FF00109FFF75CBA0A9B02333FF42B
:103DA00029AE039B186803F0E9F920BB0A9B032B9B
:103DB000D0447FF416AE2B68042B7FF412AE11E6CC
:103DC0000492FFF74CB9089B53F8042B8A46C2F8BB
:103DD00000800893FFF762B95946484606F0E2FBB7
:103DE00000283FF40CAE5346059EDDF818A0002BCA
:103DF0007FF472A99EE75346059EDDF818A0002BBC
:103E000098D058AB1C44C3F1010514F801195A4667
:103E1000484606F087FBE542F7D18BE74FF0000AF2
:103E2000E8E55346DDF81880DDF830A00A94002B51
:103E30003FF4FDAE58AB1E44C3F1010416F801195E
:103E40005A46484606F06EFBF442F7D1EFE64A4682
:103E50005346D946039EDDF838A08B46FFF713BAC8
:103E60000B9DAC427FF6FBA814F8011D5A4648464C
:103E700006F058FBAC42F7D1FFF7F1B84FF0FF3333
:103E80000493FFF7ECB80B9DAC427FF6E8A814F85A
:103E9000011D5A46484606F045FBAC42F7D1FFF7F4
:103EA000DEB8344643E605F079FDFFF7C2BA08F103
:103EB00001083CE640080020209F01086A48089657
:103EC00004F042FB039B83ED000AFFF7BDBB0B9A96
:103ED00094427FF6C4A814F8011D5A46484606F0DD
:103EE00021FB0B9B9C42F6D1FFF7B9B8039B1B68E3
:103EF0001D4601337FF466AE2A4677E6012D38BFB2
:103F0000012516F0010415D1F10679D4089C2B4641
:103F100054F8041BCDF800B00122484606F060FBBF
:103F200000283FF4D9A8049B0894013380440493EB
:103F3000FFF7B4B816F01003039308BF089BCDF841
:103F400014A004BF53F8046B08934FF000040A9BBD
:103F5000AA4618BF00264D46A146069303F03CF939
:103F600048453FF4B9A8DBE9002158AB12F8010B32
:103F700003F80900069B0139032BCBE9002109F165
:103F8000010916AC02D12368042B04D008220021B9
:103F90002046FCF799F94B4658AA0094314628462A
:103FA00003F000FA421C03463FF496A800283DD1D6
:103FB000039A02B93260C8440AF1FF3A039A02B97F
:103FC0000436DBF80420002A4FF0000934DDBAF192
:103FD000000FC2D1DDF814A00A93A946039B002B61
:103FE0003FF432ABFFF75AB8DBF800201A44CBF8A5
:103FF0000020594648461C44ED1A06F0D3FA78B919
:10400000DBF804309D42EFDC5B1BCBF80430DBF8BF
:1040100000302C441D44CBF80050A044FFF74EBAAA
:10402000002C3FF459A8A044FFF748BA981C14D1BB
:10403000DBF80420002A90DC59462846069306F057
:10404000B1FA069B0028C2D04C46DDF814A00A93B2
:10405000A946002CC2D0FFF73FB8032BC844ABD110
:104060002268042AA8D1A9E7E09F01080000000007
:104070002DE9F04F2DED068BBBB01C4688469146CE
:1040800009EE100A054603F0CFF8036810931846AE
:104090000994FDF795FA0E901DB1AB6B002B00F063
:1040A0004282B8F90C20950493B20AD442F400532A
:1040B000D8F86420A8F80C3022F400529BB2C8F85B
:1040C0006420180740F1AB80D8F81020002A00F0D7
:1040D000A68003F01A030A2B00F0B0809FED947BBA
:1040E0000023CDE91E338DED0C7B2AAA0B931D9284
:1040F00092460F931193079399F80030002B00F02C
:10410000A4814C4604E014F8013F002B00F0E58048
:10411000252BF8D1B4EB090540F0E3802378002B80
:1041200000F0938100234FF0FF32CDE9052365783D
:104130008DF8573004F1010918469B4609F1010931
:10414000A5F12002582A00F2F780DFE812F07F0282
:10415000F500F5007A02F500F500F500F500F50030
:10416000F5002D027502F50038023D02F5007002DF
:104170005900590059005900590059005900590077
:104180005900F500F500F500F500F500F500F50023
:10419000F500F500F50057028901F5008901F500E9
:1041A000F500F500F500B602F500F5009800F50001
:1041B000F500F500F500F5008800F500F500950222
:1041C000F500F500F500F500F500F500F500F50047
:1041D000F500F5008702F001890189018901BB0220
:1041E000F001F500F500EC02F500D6029A00C502D8
:1041F000C002F5001B03F5008A00F500F500F90286
:10420000A5F13002002119F8015B01EB810102EBFD
:104210004101A5F13002092AF5D9069190E719EE7E
:10422000100A414601F008FA002841F02681B8F84A
:104230000C3003F01A030A2B7FF450AFB8F90E309C
:10424000002BFFF64BAF19EE100A23464A464146B3
:104250003BB0BDEC068BBDE8F04F01F0A1B94BF0CF
:10426000100B1BF0200100F05081099B073323F055
:104270000703596853F8080B099301230EE04BF02C
:10428000100B1BF0200100F03381099B073323F052
:104290000703596853F8080B0993002300248DF88D
:1042A0005740059A561C00F091822BF08006039629
:1042B00050EA010640F08882002A40F00D83002B6E
:1042C00040F01E851BF00103089300F09485302315
:1042D0008DF8A7300DF1A7069DE2B4EB090500F0BB
:1042E000B4801F9B2B441F931E9B0133072BCAE9ED
:1042F00000951E9305DC0AF1080A079B2B440793DF
:104300000CE719EE100A1DAA414607F02DFA18B95C
:104310000DF1A80AF1E7B046B8F80C305B0601F1E0
:10432000AC8007983BB0BDEC068BBDE8F08F00BFBA
:104330000000000000000000002B40F0E587002D89
:1043400000F0838000238DF8573001238DF88050D2
:104350000493089320AE0023CDF80CB005930A9384
:10436000039B13F0020302D0049A02320492039AD0
:1043700012F0840B05D1069A0499571A002F00F306
:10438000A2831F9C9DF857208AB11E9A0DF15701F8
:1043900001320134CAF80010072A4FF001011F94BE
:1043A0001E92CAF8041000F3DD830AF1080A83B1F3
:1043B0001E9B16AA01330234CAF80020072B4FF0C7
:1043C00002021F941E93CAF8042000F3DA830AF154
:1043D000080ABBF1800F00F09B82059B089AA3EBB3
:1043E000020BBBF1000F00F3D682039BDF0500F147
:1043F0001B82089BCAF804301C441E9BCAF800604C
:104400000133072B1F941E9300F350830AF1080A0F
:10441000039B5A0705D5069B049A9D1A002D00F3AD
:10442000BD83DDE9062304998A42ACBF9B185B1863
:104430000793002C40F0EA8200231E9399F8003085
:104440000DF1A80A002B7FF45CAE1F9B002B3FF4FC
:1044500063AF19EE100A1DAA414607F085F95BE724
:10446000002B40F0F687099B073323F00703B3ECDA
:10447000027B8DED0C7BDDE90C67099327F000438F
:1044800008EE903A08EE106AB94B51EC180B4FF059
:10449000FF3209F027FC002840F0B484B44B51EC03
:1044A000180B4FF0FF3209F0FFFB002840F0AA8400
:1044B000002200233046394609F0ECFB002840F08A
:1044C00002879DF85740AB4E2BF080030393AA4B15
:1044D0000022472DC8BF1E460323CDE904320893AE
:1044E0000A92002C3FF43CAF049B0133049337E75E
:1044F0001BF0100352D11BF040014FD0099A52F823
:10450000040B0992194680B2C8E61BF010033FD194
:104510001BF040013CD0099A52F8040B099219464D
:1045200080B20123BAE6284602F0F6FAB9E5002B7C
:1045300040F09F871BF0200F099B68D0073323F0C2
:1045400007031A465B6852F8080B09921946002BBC
:10455000C0F23D84059B013300F005852BF08003FC
:10456000039350EA01039DF8574000F0C583DDF83E
:104570000CB00A2871F1000380F0FC843030012374
:104580008DF8A700CDF80CB008930DF1A70642E115
:10459000099B53F8040B099301237FE6099B53F809
:1045A000040B09930B4679E6099A52F8041B06910D
:1045B000002980F21B84069909924942069199F8D4
:1045C00000504BF0040BB9E5494611F8015B2A2D68
:1045D00000F0C587A5F13002092A894698BF00215D
:1045E00000F2338719F8015B01EB810102EB410115
:1045F000A5F13002092AF5D90591A1E5002B40F07B
:1046000030874BF0100B1BF0200F099B96D153F80D
:10461000040B09931BF0100F40F0D4831BF0400FE4
:1046200000F0D08340F3C0310B4600B28FE799F819
:1046300000504BF0800B81E599F8005001232B20AE
:104640007CE599F800504BF0010B77E599F80050A4
:1046500000287FF473AD012320206FE5099B002221
:104660008DF8572053F8042B099301238DF88020EF
:104670000493089320AE6EE6002B40F0E2863F4B99
:104680000F931BF0200163D0099B073323F007032E
:10469000596853F8080B09931BF0010F0BD050EA2F
:1046A000010308D030238DF858308DF859504BF065
:1046B000020B0223F2E50223F0E599F800504BF0DB
:1046C000080B3BE599F800504BF0400B36E599F8A4
:1046D00000504BF0200B31E5099B53F8040B099374
:1046E000302378258DF85830254B0F934BF0020B73
:1046F0008DF8595000210223D0E5002B40F0AD8603
:104700001BF0200F40F025841BF0100F40F09D841B
:104710001BF0400F00F09984099B079953F8042B74
:1047200009931180E8E499F800506C2D03BF99F8C3
:1047300001504BF0200B09F101094BF0100BFDE487
:10474000002B40F092860E4B0F931BF020019BD163
:104750001BF0100340F031831BF0400100F02D836B
:10476000099A52F8040B0992194680B294E700BFE7
:10477000FFFFEF7FDC9E0108E09E0108009F01081B
:10478000EC9E0108099C059B54F8046B00278DF8EA
:104790005770002E00F027845A1C00F023851A461B
:1047A0003946304602F06CFE002800F03286831B4A
:1047B000089323EAE373099405979DF85740CDF8D1
:1047C0000CB004930A978CE6DDF80CB0012B3FF493
:1047D000D0AE022B00F088802AAE00F00703C0089C
:1047E00040EA4170C908303350EA0107324606F802
:1047F000013DF2D11BF0010F00F08480302B00F05E
:1048000081803023023A06F8013C2AAB9B1ACDF88E
:104810000CB008931646059B089A9342B8BF1346FE
:10482000049300230A935CE6652D40F3F980DDE9EB
:104830000C010022002309F023FA002800F0E9818E
:104840001E9BC54ACAF80020013301340122072B00
:104850001F941E93CAF8042000F36B840AF1080A1F
:10486000179B0B9A934280F2BC820E9B109A1C44B9
:10487000CAE900231E9B1F940133072B1E9300F3EC
:10488000A5830AF1080A0B9B5D1E002D7FF7C0ADC2
:10489000102D1E9BB14F40F3408419EE10BA102624
:1048A00005E00AF1080A103D102D40F3368401336B
:1048B0001034072BCAE90076CDE91E34F1DD1DAABC
:1048C0004146584606F050FF00287FF425ADDDE94B
:1048D0001E340DF1A80AE6E7012B00F04885022BF3
:1048E000DDF80CB07FF478AF0F9A2AAE00F00F031A
:1048F0000009D35C06F8013D40EA0170090950EA5D
:104900000103F3D12AAB9B1BCDF80CB0089382E7CF
:10491000069B049AA3EB020BBBF1000F7FF75DAD82
:10492000BBF1100F1E9A8D4F27DD2146102319EE83
:10493000104A06E0ABF1100BBBF1100F0AF1080AA8
:104940001ADD01321031072ACAE90073CDE91E21B0
:10495000F0DD1DAA414620460DF1A80A06F004FF2D
:1049600000287FF4D9ACABF1100BBBF1100FDDE9DF
:104970001E214FF01003E4DC0C4601325C44072A90
:10498000CDE91E24CAF80070CAF804B000F3DF8332
:104990000AF1080A21E5BBF1100F1E9A6F4F27DDBF
:1049A0002146102319EE104A06E0ABF1100BBBF1C3
:1049B000100F0AF1080A1ADD01321031072ACAE97C
:1049C0000073CDE91E21F0DD1DAA4146204606F008
:1049D000CBFE00287FF4A0ACABF1100BBBF1100FA5
:1049E000DDE91E210DF1A80A4FF01003E4DC0C46AE
:1049F00001325C44072ACDE91E24CAF80070CAF8C7
:104A000004B000F3CC810AF1080AEEE419EE100AB2
:104A10001DAA414606F0A8FE00283FF40DAD7BE438
:104A20000B9B012B40F371811E9DCAF8006001357C
:104A300001340123072D1F941E95CAF8043000F39A
:104A40000C830AF1080A0E9B109A01351C44072DAD
:104A5000CAE90023CDE91E5400F30D830AF1080AC8
:104A6000DDE90C010022002309F00AF9002840F0DA
:104A70006B810B9B0135013B01361C44072DCAF8A5
:104A800000601E95CAF804301F9400F34F810AF1AC
:104A9000080A119BCAF8043001351C44072D19ABD4
:104AA000CDE91E54CAF800307FF7B0AC19EE100AF9
:104AB0001DAA414606F058FE00287FF42DAC1F9C2D
:104AC0000DF1A80AA4E4102FDDE91E2134DD1293B4
:104AD000CDF84C901024B1460B464646B8462F46BA
:104AE00019EE105A06E0A8F11008B8F1100F0AF1FB
:104AF000080A19DD01321A491033072ACAE90014DD
:104B0000CDE91E23EFDD1DAA314628460DF1A80A86
:104B100006F02AFE00287FF4FEABA8F11008B8F1D9
:104B2000100FDDE91E23E5DC3D4619464746129B82
:104B3000B0464E46DDF84C90CAF8047001327C183D
:104B4000072A0749CAF80010CDE91E2400F3D582D0
:104B50000AF1080A16E400BF1C9F01080499010825
:104B6000F498010819EE100A1DAA4146129306F0A6
:104B7000FBFD00287FF4D0AB1F9C129B0DF1A80A0F
:104B800015E419EE100A1DAA414606F0EDFD0028B5
:104B90007FF4C2AB1F9C0DF1A80A1AE4102D1E9BD6
:104BA00020DD19EE107A102604E0103D102D0AF1D8
:104BB000080A17DD0133914A1034072BCAE9002691
:104BC000CDE91E34F1DD1DAA414638460DF1A80A93
:104BD00006F0CAFD00287FF49FAB103D102DDDE9E3
:104BE0001E34E7DC0133854ACAF804502C44072BF5
:104BF000CDE91E34CAF800207FF713AC19EE100A75
:104C00001DAA414606F0B0FD00287FF485AB1F9C2D
:104C100007E41799002940F33C82DDE90A379F42F7
:104C2000A8BF1F46002F0BDD1E9B01333C44072B02
:104C3000CAE900671F941E9300F3CB830AF1080AA8
:104C40000A9D002FA8BFED1B002D00F3D581179DF5
:104C50000B9B9D4280F2AE810E9B109A1C44CAE9C8
:104C600000231E9B1F940133072B1E9300F3A38385
:104C70000AF1080A0B9B0A9A5D1B9F1AAF42A8BF54
:104C80002F46002F0EDD1E9BCAF804700133164418
:104C90003C44072BCAF800601F941E9300F3A683C0
:104CA0000AF1080A002FA8BFED1B002D7FF7B0AB5B
:104CB000102D1E9B524F40F3308219EE10BA102671
:104CC00005E00AF1080A103D102D40F32682013359
:104CD0001034072BCAE90076CDE91E34F1DD1DAA98
:104CE0004146584606F040FD00287FF415ABDDE94B
:104CF0001E340DF1A80AE6E7059B002B40F0378330
:104D00000023059308932AAE85E5039BD9073FF559
:104D10008BAE1E9DCAF80060013501340123072DBA
:104D20001F941E95CAF804307FF7B1AE19EE100A31
:104D30001DAA414606F018FD00287FF4EDAADDE922
:104D40001E540DF1A80AA4E60B9B5E1E002E7FF7F1
:104D5000A0AE102E2A4F40F35782CDF814904FF09A
:104D6000100B19EE109A05E00AF1080A103E102EF9
:104D700040F3488201351034072DCAE9007BCDE9A4
:104D80001E54F1DD1DAA4146484606F0EDFC002800
:104D90007FF4C2AADDE91E540DF1A80AE6E719EE78
:104DA000100A1DAA414606F0DFFC00287FF4B4AAD1
:104DB0001F9C0DF1A80AFFF718BB099B53F8040BC1
:104DC000099369E4C1170B46002BBFF6C3AB404201
:104DD0004FF02D0461EB41018DF857400123FFF79F
:104DE00060BA039BDD077FF513AB3EE599F80050F1
:104DF0000992FFF7A3B92AAE0DE500BFF4980108A8
:104E000004990108DDE90C0102460B4608F06AFF2F
:104E1000002840F06583059B013325F0200700F052
:104E2000F582472F00F08182DDE90C014BF480729E
:104E300000290392C0F24C829DED0C7B002312935B
:104E4000B0EE47AAF0EE67AA662D00F0E981462D84
:104E500000F0E681B0EE4A0AF0EE6A0A452F0ABF7A
:104E6000059B059C5C1C1BAB019318AB009319EED2
:104E7000100A17AB2246022100F0EEFC672D064611
:104E800040F03D821BF0010F40F03C821B9B472FFE
:104E9000A3EB06030B9340F06E83179B0A93D91C78
:104EA00003DB059A934240F37882023D0A9A8DF81B
:104EB0006450531E002B1793B6BFC2F101032B227F
:104EC0002D22092B8DF8652040F3F5820DF1730436
:104ED000C04F2246104687FB0321DA17C2EBA1021E
:104EE00002EB8201A3EB4101303100F8011C1946AD
:104EF0006329134600F1FF32ECDC3033D9B2831E54
:104F00009C4202F8011C40F2278313460DF1660211
:104F100001E013F8011B02F8011B9C42F9D10DF1CD
:104F200075030DF166021B1A134419AA9B1A1193FB
:104F30000B9A119B012A1344089340F3C882089BE3
:104F40000E9A1344089323EAE373049300230A930D
:104F50009EE1099B079853F8041B0993C217C1E906
:104F60000002FFF7C9B80A2871F100039DF8574005
:104F7000FFF404ABCDF80C902AAEA1460A22002320
:104F800004460F46FBF776FA303206F8012D00236F
:104F9000204639460A22FBF76DFA0A2C77F1000306
:104FA000ECD22AAB9B1B4C460893DDF80C90CDF855
:104FB0000CB030E4039BD8073FF54EAEDDE90A2381
:104FC0009F1A5D1BAF42A8BF2F466BE619EE100A71
:104FD0001DAA414606F0C8FB00287FF49DA91F9C2E
:104FE0000DF1A80A4FE4062B28BF0623CDE90834AB
:104FF000794E0493FFF7AFB9102D1E9B774F40F306
:1050000055813A460596474619EE106A4FF0100B47
:10501000904605E00AF1080A103D102D40F3428148
:1050200001331034072BCAE9008BCDE91E34F1DDC2
:105030001DAA3946304606F097FB002840F044820E
:10504000DDE91E340DF1A80AE6E7099B079953F83C
:10505000042B11600993FFF74FB819EE100A1DAA2F
:10506000414606F081FB00287FF456A9DDE91E5475
:105070000DF1A80AE7E419EE100A1DAA414606F050
:1050800073FB00287FF448A9DDE91E540DF1A80A3E
:10509000E6E41E9B524ACAF8002001330134012283
:1050A000072B1F941E93CAF8042000F31A810AF1FB
:1050B000080A002959D1039B0B9A03F001031343FB
:1050C0003FF4A6A90E9B10991A19CAE900131E9B5A
:1050D0001F920133072B1E9300F32D810AF1080A5A
:1050E0000B99CAF8006001338C18072BCDE91E34E8
:1050F000CAF804107FF78AA9D8E419EE100A1DAA8D
:105100004146129306F030FB00287FF405A91F9C4E
:10511000129B0DF1A80AFFF735B901332C44072B78
:10512000CAF80070CAF80450CDE91E347FF76EA9A2
:10513000BCE419EE100A1DAA414606F015FB002832
:105140007FF4EAA81F9C0DF1A80AFFF789BB19EEAE
:10515000100A1DAA414606F007FB00287FF4DCA8D0
:105160001F9C0DF1A80AFFF738B90E9B10981A1969
:10517000CAE900031E9B1F920133072B1E9300F305
:10518000DA800AF1080A0029AADA4D421031134FD9
:1051900080F2788119EE10BA102405E00AF1080AAD
:1051A000103D102D40F36E8101331032072BCAE9F8
:1051B0000074CDE91E32F1DD1DAA4146584606F0C5
:1051C000D3FA00287FF4A8A8DDE91E320DF1A80A61
:1051D000E6E700BF67666666149F01080499010848
:1051E0001C9F0108304609940597CDF80CB0FCF7D8
:1051F000E7F920EAE0739DF85740089004930A9776
:10520000FFF76FB9DDF81490CAF800700135344427
:10521000072DCDE91E54CAF804607FF738AC85E548
:10522000059CB0EE4A0AF0EE6A0A1BAB019318AB7C
:105230000093224617AB19EE100A032100F00CFB75
:10524000064604193378302B62D0179B1C4451EC6E
:105250001A0B0022002308F013FD002800F08B80B9
:1052600023469B1B472F0B933FF417AE662D40F050
:105270008281179B059A0A93002B0BF0010B40F3D8
:105280005C815BEA020140F045810A9B049308932C
:10529000129B002B7BD02D238DF8573000230593D4
:1052A000FFF722B94246059EB846174601332C4403
:1052B000072BCDE91E34CAF80070CAF8045049DC47
:1052C0000AF1080AC3E42D248DF85740FFF7FBB814
:1052D00001F100430AEE903A2D230AEE100A1293D0
:1052E000B2E519EE100A1DAA414606F03DFA002863
:1052F0007FF412A817991F9C0DF1A80AD9E6472D33
:105300003FF4C0AD3444A2E78DF85700FFF717B85B
:1053100051EC1A0B0022002308F0B2FC002894D1B3
:10532000059BC3F10103179390E7059B002B08BF72
:105330000123059378E519EE100A1DAA414606F0EF
:1053400013FA00287EF4E8AFDDE91E3217990DF15B
:10535000A80A18E719EE100A1DAA414606F004FA39
:1053600000287EF4D9AF1F9C0DF1A80A6FE4DDF888
:105370000CB0FFF703B91B9BA342BFF472AF3021FF
:105380005A1C1B9219701B9B9C42F9D869E7129B0F
:105390009DF857400593FFF7A4B8DDE90A32934220
:1053A00043DB1BF0010F40F0AC8023EAE372049270
:1053B000089367256CE719EE100A1DAA414606F00E
:1053C000D3F900287EF4A8AF179D1F9C0DF1A80A01
:1053D00050E419EE100A1DAA414606F0C5F900284E
:1053E0007EF49AAF1F9C0DF1A80A29E419EE100A69
:1053F0001DAA414606F0B8F900287EF48DAF179D2E
:105400000B9B1F9C5D1B0DF1A80A4BE40623059323
:105410000AE5059B0994CDF80CB09DF8574004931C
:10542000089305900A90FFF75CB80E9A0B9B134403
:105430000A9A0893002A75DD23EAE373049367252B
:1054400026E78DF85700FFF71AB900220592FEF7FC
:1054500077BE8DF85700FFF706B88DF85700FFF7B5
:105460004FB98DF85700FFF7CCB88DF85700FFF70C
:105470006AB98DF85700FFF75DB84FF0FF33079317
:10548000FEF74FBF01332A44072BCDE91E32CAF87D
:105490000070CAF804507FF721AE19EE100A1DAA59
:1054A000414606F061F900287EF436AFDDE91E3290
:1054B0000DF1A80A14E630338DF8673030238DF8EB
:1054C00066300423119333E5B846FEF725BF1BF081
:1054D00001020A927FF433AD23EAE3730493D7E623
:1054E0000D9B264E002BB8BF2D242BF08003039379
:1054F000A8BF9DF85740224BB8BF8DF85740FEF724
:10550000E7BF0A9B0E9A1344089323EAE3730493BC
:105510006725BDE60E990B441A4422EAE27308920D
:105520000493B5E60A9B089AC3F101031A4422EAE0
:10553000E273089204936725AAE65BEA020303D1AB
:10554000012304930893A3E60E9B01331A4422EA35
:10555000E273089204939BE602231193E8E4099A0C
:1055600099F80150894652F8041B099241EAE17109
:105570000591FEF7E3BD179B0A9397E4E49E0108AB
:10558000E89E010810B4054C8446134620685DF877
:10559000044B0A466146FEF76BBD00BF00000020C9
:1055A00070B50C468989ADF58D6D21F00201ADF81D
:1055B0000C10616E1991E189ADF80E10E169079147
:1055C000616A09911AA9009104914FF480610291D6
:1055D00005910021069169460646FEF749FD051E24
:1055E00007DB6946304601F06DF9002818BF4FF01F
:1055F000FF35BDF80C305B0603D5A38943F04003AB
:10560000A38128460DF58D6D70BD00BF38B50C46E1
:10561000084D8446114620461A4600232B606446F6
:105620000BF024FE431C00D038BD2B68002BFBD0B0
:10563000236038BD5810002038B5334B1B68054631
:105640000C460BB19A6B12B3B4F90C3018079AB22E
:1056500025D5216900292DD012F0010007D00020A6
:10566000A06060694042A06139B1002038BD950753
:1056700058BF6069A0600029F7D1120658BF0846DC
:10568000F4D543F04003A3814FF0FF3038BD1846F6
:1056900001F042FAB4F90C3018079AB2D9D4D10605
:1056A0002AD5520714D4216943F00803A3819AB282
:1056B0000029D1D102F42070B0F5007FCCD0214672
:1056C000284601F0CFFDB4F90C3021699AB2C3E746
:1056D000216B51B104F14002914204D0284601F0FF
:1056E0008BFAB4F90C300022226321690022C4E94C
:1056F000001223F02403D7E7092243F040032A6075
:105700004FF0FF30A38138BD0000002038B5074DB1
:105710000022044608462A600BF0D8FD431C00D046
:1057200038BD2B68002BFBD0236038BD58100020FB
:105730002DE9F04F03690C69A34283B0C0F2878062
:10574000013C01F11405A30000F11408009355F881
:10575000243058F82420013381469A4208EB840013
:1057600005EB84070190B2FBF3F63BD30023AE4672
:1057700040469B465EF804AB02681FFA8AFC06FBB3
:105780000C334FEA134C4FEA1A4A06FB0ACA1FFAB7
:1057900083FCABEB0C0C1FFA8AF31CFA82FCC3EB04
:1057A000124202EB2C421FFA8CFC4CEA0243774572
:1057B00040F8043B4FEA224B4FEA1A43DAD2009BEF
:1057C00058F8033073B9019B043B984504D307E0B4
:1057D000984504F1FF3403D253F80429002AF7D086
:1057E000C9F81040484602F0F9F900282BDB0136D1
:1057F0004046002355F8041BD0F800C08AB29A1A1C
:105800000B0C12FA8CF2C3EB1C4303EB224392B253
:1058100042EA0342AF4240F8042B4FEA2343E9D265
:1058200058F8242008EB84036AB9043B984504D354
:1058300007E0984504F1FF3403D253F80429002A05
:10584000F7D0C9F81040304603B0BDE8F08F002013
:1058500003B0BDE8F08F00BF2DE9F04F2DED068BB2
:1058600095B08DED020B0191016C249D099259ECCC
:10587000108B0446069341B1426C4A600123934069
:105880008B6001F0EFFE00232364B9F1000AB4BF7E
:10589000012300232B607C4BBCBF2AF0004ACDF8CB
:1058A0000CA033EA0A0300F0B2809DED027B0022D7
:1058B00051EC170BB0EE479AF0EE679A002308F010
:1058C000DFF9074680B1069A01231360259B002B60
:1058D00000F0DB826D481860431E0093009815B0FD
:1058E000BDEC068BBDE8F08F12AA13A92046B0EEDE
:1058F000490AF0EE690A02F0C9FAB0EE498AF0EE00
:10590000698A5FEA1A56054640F09980DDE9127609
:105910003E4406F23240202840F3AB83C0F1400001
:105920000AFA00FA06F2124028FA00F04AEA0000E9
:1059300007F0C4FE0123013E0D93A1F1F871544B11
:10594000002207F07DFD4AA3D3E9002307F030FFD2
:1059500049A3D3E9002307F075FD80463046894608
:1059600007F0BCFE46A3D3E9002307F021FF02465F
:105970000B464046494607F065FD8046894608F0DB
:10598000C7F90022834600234046494608F082F9C1
:10599000002840F06D82BBF1160F00F25C823D4B97
:1059A00003EBCB03D3E9002351EC190B08F072F998
:1059B000002875D00023BE1B0C93731E0BF1FF3B18
:1059C000049300F14F8200230893BBF1000F6EDABD
:1059D000089BCDF814B0A3EB0B030893CBF10003A5
:1059E0000B93019B092B4FF0000B69D8052B40F35B
:1059F0003E83043B01930026019B023B032B00F2F4
:105A00009986DFE813F04E044B0443042604069AFB
:105A100042F20F73CAF3130A13605AEA08031DD146
:105A2000259B002B00F07D861B4B00930833259AA5
:105A30000098136015B0BDEC068BBDE8F08F18EE32
:105A4000903AC3F3130351EC190B43F07F510D97B8
:105A5000A6F2FF36129F41F4401170E7259B002B00
:105A600040F0DB830D4B009338E700BFAFF30080BD
:105A700061436F63A787D23FB3C8608B288AC63F54
:105A8000FB799F501344D33F0000F07F1D9F010816
:105A90000000F83F289A01082C9F0108289F010860
:105AA000BE1B731E049300F19A840C900890049B13
:105AB0005B44CDE9043B00230B93019B092B95D953
:105AC000002301264FF0FF3201930A9607920993B3
:105AD000079B0F9300216164204601F09DFD00901B
:105AE000002800F02F86009B2364079B0E2B00F2FA
:105AF000F980002E00F0F6800599002940F37184AA
