:020000040800F2
:1000000000000820918A0008B9510008BB5100087F
:10001000BD510008BF510008C15100080000000098
:10002000000000000000000000000000C3510008B4
:10003000C551000800000000C7510008C951000860
:10004000E18A0008E18A0008E18A0008E18A0008E4
:10005000E18A0008E18A0008E18A0008E18A0008D4
:10006000E18A0008E18A0008E18A0008E18A0008C4
:10007000E18A0008E18A0008E18A0008E18A0008B4
:10008000E18A0008D1510008E1510008E18A000826
:10009000E18A0008E18A0008E18A0008E18A000894
:1000A000E18A0008E18A0008E18A0008E18A000884
:1000B000F1510008E18A0008E18A0008E18A00089D
:1000C000E18A0008E18A0008E18A0008E18A000864
:1000D000E18A0008E18A0008E18A0008015200086C
:1000E000E18A0008E18A0008E18A0008E18A000844
:1000F000E18A0008E18A0008E18A0008E18A000834
:10010000E18A0008E18A0008E18A0008E18A000823
:10011000E18A0008E18A0008E18A0008E18A000813
:10012000E18A0008E18A0008E18A0008E18A000803
:10013000E18A0008E18A0008E18A0008E18A0008F3
:10014000E18A0008E18A0008E18A0008E18A0008E3
:10015000E18A0008E18A0008E18A0008E18A0008D3
:10016000E18A0008E18A0008E18A0008E18A0008C3
:10017000E18A0008E18A0008E18A00080000000026
:10018000E18A0008E18A0008E18A0008E18A0008A3
:10019000E18A0008E18A0008E18A0008E18A000893
:1001A000E18A0008E18A0008E18A0008E18A000883
:1001B000E18A0008E18A0008E18A0008E18A000873
:1001C000E18A0008E18A000800000000E18A0008D6
:1001D000E18A0008E18A0008E18A0008E18A000853
:1001E000E18A0008E18A0008E18A0008E18A000843
:0801F000E18A0008E18A000821
:100200000348044B834202D0034B03B118477047A5
:100210008000002080000020000000000548064902
:100220000B1AD90F01EBA301491002D0034B03B104
:100230001847704780000020800000200000000068
:1002400010B5064C237843B9FFF7DAFF044B13B11E
:100250000448AFF300800123237010BD800000200C
:1002600000000000E48A000808B5044B1BB10449F3
:100270000448AFF30080BDE80840CFE7000000006D
:1002800084000020E48A0008014B1868704700BF12
:100290000000002070B50D4E0D4D761BB61006D037
:1002A000002455F8043B01349847A642F9D1094E81
:1002B000094D761B08F016FCB61006D0002455F840
:1002C000043B01349847A642F9D170BD609C0008F8
:1002D000609C0008649C0008609C0008024B01467A
:1002E000186800F0BFB800BF00000020024B0146B4
:1002F000186800F055B800BF00000020830730B533
:1003000048D0541E002A3FD0CAB2034601E0013C47
:100310003AD303F8012B9D07F9D1032C2DD9CDB287
:1003200045EA05250F2C45EA054536D9A4F110020A
:1003300022F00F0C03F1200EE6444FEA121C03F1E9
:10034000100242E9045542E9025510327245F8D1D3
:100350000CF1010214F00C0F03EB021204F00F0C6D
:1003600013D0ACF1040323F003030433134442F825
:10037000045B9342FBD10CF003042CB1CAB21C44C1
:1003800003F8012B9C42FBD130BD64461346002C80
:10039000F4D1F9E703461446BFE71A46A446E0E75E
:1003A000002958D030B551F8043C83B0002BA1F19E
:1003B0000404B8BFE418019000F04CFD284A0198ED
:1003C000136833B1A3420DD9216804EB010C6345D6
:1003D0002FD06360146003B0BDE8304000F03CBD36
:1003E000A34210D81A465B68002BF9D1116802EBC2
:1003F000010C644519D02FD36360546003B0BDE88D
:10040000304000F029BD116802EB010CA44516D064
:1004100022D8216804EB010C6345EDD11D685B68AF
:100420002944C4E900135460D5E7236819441160D6
:10043000D1E71D685B682944C4E90013CAE7246852
:1004400021445418A3421160C5D1D3E9004321448B
:10045000C2E90013BFE770470C230360BBE700BF8E
:100460009C000020F8B5CD1C25F0030508350C2DA7
:1004700038BF0C25002D064623DBA94221D8254F85
:1004800000F0E8FC3A6822B3144603E063682246B1
:10049000FBB11C4623685B1BF8D40B2B15D8636893
:1004A00094420CBF3B605360304600F0D5FC04F131
:1004B0000B00231D20F00700C21A01D01B1AA35005
:1004C000F8BD0C2333600020F8BD23601C44256078
:1004D000EAE77968C9B12946304600F029F8431C9B
:1004E0000CD0C41C24F00304A04205D0211A3046CD
:1004F00000F01EF8013001D02560D5E70C2330460E
:10050000336000F0A9FC0020F8BD304600F010F880
:100510007860E0E79C00002010B4044C03460A46D3
:1005200020685DF8044B194600F098BC00000020DC
:1005300038B5074D0022044608462A6004F0A2FEA2
:10054000431C00D038BD2B68002BFBD0236038BD86
:10055000A400002008B410B5002A9DB0044633DB87
:100560004FF40273ADF814300291069120AB17D00E
:10057000013A4FF6FF7104920792ADF816101F9AD8
:10058000019302A900F070FD421C01DA8B23236065
:10059000029B00221A701DB0BDE8104001B07047E8
:1005A0004FF6FF7104920792ADF816101F9A01934F
:1005B00002A900F059FD431C01DA8B2323601DB012
:1005C000BDE8104001B070478B2303604FF0FF304F
:1005D000F5E700BF0CB410B51F4B00291C689CB098
:1005E00035DB4FF40273ADF81430029006901FAB68
:1005F00018D001394FF6FF7204910791ADF816201B
:1006000002A91E9A0193204600F02EFD421C01DA39
:100610008B232360029B00221A701CB0BDE810409F
:1006200002B070474FF6FF7204910791ADF81620A3
:1006300002A91E9A0193204600F016FD431C01DA20
:100640008B2323601CB0BDE8104002B070478B23A1
:1006500023604FF0FF30F5E7000000200CB410B528
:100660009CB01EAB6FF00044CDE90614029108491E
:1006700053F8042B059102A90193049400F0F4FCB3
:10068000029B00221A701CB0BDE8104002B07047F7
:100690000802FFFF0EB410B59DB06FF000411FAB14
:1006A000CDE906010491094953F8042B0290084C46
:1006B0000868019302A9059400F0D6FC029B002271
:1006C0001A701DB0BDE8104003B070470000002054
:1006D0000802FFFF00000000000000000000000012
:1006E000A2EB0300704700BF02780B78012A28BFF5
:1006F0009A42F5D16DE9044540EA0104CDE902676B
:100700006FF0000C4FEA447212B380EA010414F057
:10071000070F6AD100F0070420F0070004F003057A
:1007200021F007014FEAC505F0E8042314F0040F97
:10073000F1E804670CFA05F462EA040266EA0406CA
:100740000AD063EA0403624667EA0407664603E0E8
:10075000F0E80423F1E8046782FA4CF582EA060423
:10076000A4FA8CF46CBB83FA4CF583EA0705A5FA6E
:100770008CF595B950E9022351E9026782FA4CF5EC
:1007800082EA0604A4FA8CF483FA4CF583EA07059E
:10079000A5FA8CF52543DBD09CB92DBAB5FA85F4C2
:1007A00024F0070427FA04F1DDE9026723FA04F3D1
:1007B00003F0FF0001F0FF01FDE80445A0EB01009C
:1007C000704724BAB4FA84F424F0070426FA04F13A
:1007D000DDE9026722FA04F202F0FF0001F0FF01F6
:1007E000FDE80445A0EB0100704714F0030F3CD175
:1007F00010F0030428D150F8082B51F8083B82FA76
:100800004CF582EA0305A5FA8CF55DB950F8042C85
:1008100051F8043C82FA4CF582EA0305A5FA8CF5FE
:10082000002DE8D02DBAB5FA85F424F0070423FA98
:1008300004F122FA04F202F0FF0001F0FF01FDE8EA
:100840000445A0EB010070474FEAC40420F0030008
:1008500050F8082B21F0030151F8083B0CFA04F47E
:1008600062EA040263EA0403C9E710F003041AD041
:10087000A1EB040120F00300E40750F8042B06D09C
:100880000FD28B785FFAA2F4E41A06D12BB1CB78A1
:100890005FFAB2F4E41A00D11BB920465DF8104BA0
:1008A000704701F1040150F8042BCC0721F003013B
:1008B00051F8043B48D824D222F07F4482FA4CF508
:1008C00094EA1325A5FA8CF50AD165B951F8043BD1
:1008D00084EA0204B4EB036F0ED150F8042BEBE76B
:1008E0004FEA132355E035F07F454DD10878FDE8F8
:1008F0000445C0F1000070474FEA126203F0FF03A5
:1009000047E002EA1C4482FA4CF594EA1345A5FA42
:100910008CF50AD165B951F8043B84EA0204B4EBC2
:10092000034F0CD150F8042BEBE74FEA134330E0B0
:1009300015EA1C4528D10B884FEA124229E04FEAFC
:10094000124203EA1C4324E002F0FF0482FA4CF551
:1009500094EA1365A5FA8CF50AD165B951F8043B00
:1009600084EA0204B4EB032F09D150F8042BEBE71F
:100970004FEA13630DE015F0FF0F05D10B684FEA46
:10098000122223F07F4304E04FF00000FDE804450D
:10099000704712BA1BBA82FA4CF482EA0304A4FA32
:1009A0008CF5B5FA85F402FA04F203FA04F34FEA7F
:1009B0001260FDE80445A0EB1360704780EA010275
:1009C000844612F0030F4FD111F0030F32D14DF8CE
:1009D000044D11F0040F51F8043B0BD0A3F1013288
:1009E0009A4312F0803F04BF4CF8043B51F8043B9B
:1009F00016D100BF51F8044BA3F101329A4312F013
:100A0000803FA4F101320BD14CF8043BA24312F019
:100A1000803F04BF51F8043B4CF8044BEAD0234616
:100A20000CF8013B13F0FF0F4FEA3323F8D15DF8C8
:100A3000044B704711F0010F06D011F8012B0CF890
:100A4000012B002A08BF704711F0020FBFD031F808
:100A5000022B12F0FF0F16BF2CF8022B8CF800208F
:100A600012F47F4FB3D1704711F8012B0CF8012B12
:100A7000002AF9D1704700BF00000000000000000C
:100A800090F800F06DE9024520F007016FF0000CCE
:100A900010F0070491F820F040F049804FF0000476
:100AA0006FF00700D1E9002391F840F000F1080051
:100AB00082FA4CF2A4FA8CF283FA4CF3A2FA8CF389
:100AC0004BBBD1E9022382FA4CF200F10800A4FAF0
:100AD0008CF283FA4CF3A2FA8CF3E3B9D1E9042344
:100AE00082FA4CF200F10800A4FA8CF283FA4CF37B
:100AF000A2FA8CF37BB9D1E9062301F1200182FA35
:100B00004CF200F10800A4FA8CF283FA4CF3A2FA3A
:100B10008CF3002BC6D0002A04BF04301A4612BA48
:100B2000B2FA82F2FDE8024500EBD2007047D1E94B
:100B3000002304F00305C4F100004FEAC50514F0DA
:100B4000040F91F840F00CFA05F562EA05021CBFAB
:100B500063EA050362464FF00004A9E7194B70B53C
:100B60001D68AA6D04460E4632B131462046012367
:100B7000BDE8704000F02CB85020FFF7AFFB0246F4
:100B8000A865D0B100230377C0E90033C0E9023380
:100B9000C0E90433C0E90A33C0E90C33C0E90E33BD
:100BA000C0E91033C0E91233836143623146204605
:100BB0000123BDE8704000F00BB8034B03485721F8
:100BC00000F000F900000020909B0008A89B00089E
:100BD000F0B4074610B33E468C4616F8010B01E010
:100BE000A04216D01CF8014B002CF9D1D8B116F850
:100BF000015B0C4601E0002BF9D014F8013B9D424B
:100C0000F9D14DB1002306F8013C16603846F0BC1E
:100C100070475BB13746DEE72E46F6E71768002FD0
:100C2000D9D13846F3E7F0BC1060704716603846FB
:100C30003B70ECE70123FFF7CBBF00BF2DE9F04F7E
:100C4000814645488E4675461EF801CB10F80C408B
:100C500014F00804F7D1BCF12D0FE34654D0BCF1D9
:100C60002B0F08BF9EF800B06FF0004808BF05F1D9
:100C7000020E1BB1102B4FD01F4604E0BBF1300F0A
:100C800055D00A231F460025B8FBF7F6284607FB78
:100C9000168A07E0864215D329D007FB00C001253C
:100CA0001EF801BBABF1300CBCF1090F06D9ABF15A
:100CB000410CBCF1190F08D8ABF1370C63450DDDC1
:100CC000002DE7DA4FF0FF35EAE7ABF1610CBCF13C
:100CD000190F03D8ABF1570C6345F1DC002D0BDB8A
:100CE00004B140420AB195BB1160BDE8F08FE24506
:100CF000D3DA4FF0FF35D3E72223C9F800301AB317
:100D00000EF1FF314046EFE79EF800B04FF000488B
:100D100005F1020E0124ACE7BBF1300FACD19EF817
:100D2000000000F0DF00582807D01F46ABE79EF810
:100D3000003003F0DF03582B0BD110279EF801B0D1
:100D40003B460EF1020E9EE74046BDE8F08F80461E
:100D5000D6E708231F4696E7058B0008012B02D033
:100D6000242B00D86AE710B5FFF78EFA162303602C
:100D7000002010BD012A08D0242A06D8844606483F
:100D8000134600680A46614658E710B5FFF77CFA3B
:100D900016230360002010BD00000020012A08D0A7
:100DA000242A06D884460648134600680A46614647
:100DB00044E710B5FFF768FA16230360002010BD62
:100DC0000000002000B50B4C25681446EE681A465A
:100DD00085B003460D464CB107490095CDE9011495
:100DE0003046064900F022F800F0C0FE04490C46E7
:100DF000F3E700BF00000020DC9B0008EC9B00082C
:100E00003096000808B513460022FFF7DBFF00BF4D
:100E10000CB400B583B004AB53F8042B019300F07D
:100E200081FA03B05DF804EB02B070470EB410B560
:100E300083B005AB064C53F8042B019301462068A0
:100E400000F070FA03B0BDE8104003B0704700BF77
:100E500000000020704700BF704700BFF8B514467F
:100E6000F9B1CAB106460D4601F048FCA04202D3D2
:100E70002F463846F8BD21463046FFF7F3FA0746BD
:100E80000028F6D02246294601F022FB30462946AA
:100E9000FFF786FA3846F8BD2746FFF781FA38464D
:100EA000F8BDBDE8F8401146FFF7DCBA2DE9F04780
:100EB0008F689F420C461D46164638D88246888960
:100EC00010F4906F0ED108683D462A46314601F075
:100ED00099FBA2682368D21B2B44A26023600020E8
:100EE000BDE8F0874B69096903EB4308236808EB09
:100EF000D878A3EB01096B1C4FEA68084B444345C3
:100F0000424684BF98464246430513D51146504693
:100F1000FFF7A8FA074608B321694A4601F0D8FA54
:100F2000A38923F4906343F08003A38107E008685A
:100F30001F46CAE75046FFF791FF074650B107EB3F
:100F40000900A8EB09032761C4F81480A36020609E
:100F50002F46BAE721695046FFF722FA0C23CAF858
:100F60000030A38943F040034FF0FF30A381B7E77F
:100F70002DE9F04F936883B09146002B6ED017682F
:100F80008D6880460C460868083744E0A38913F44E
:100F9000906F2ED0D4E90415A0EB010A05EB4505AE
:100FA00005EBD5750AEB06006D100130A8422A4604
:100FB00084BF05462A465B0537D511464046FFF7F4
:100FC00051FA00283BD052462169019001F080FA85
:100FD000A289019B22F4906242F08002A281A5EBDB
:100FE0000A0203EB0A006561A260236120603546B6
:100FF000B2465946524601F005FBA068D9F80810E0
:101000002368451B8E1B03EB0A00A5602060C9F80E
:1010100008601EB3083757E902B6002EFAD0B54271
:10102000AA46B3D93546B246E3E74046FFF716FF76
:1010300003460028D3D121694046FFF7B1F90C23BC
:10104000C8F80030A389002243F040034FF0FF307E
:10105000A381C9E9012203B0BDE8F08F0020C9F8DF
:10106000040003B0BDE8F08F2DE9F04F92468A8965
:1010700015069DB0884681461C4603D50A69002A9C
:1010800000F0EF80002209929AF800307E4D039420
:1010900020228DF8292030228DF82A200126002BCD
:1010A00072D0544603E014F8013F002B76D0252B74
:1010B000F9D1B4EB0A0B74D12278002A64D0002352
:1010C0004FF0FF32CDE90523049307938DF8533099
:1010D0001A93013404E0049A06FA03F313430493C9
:1010E000A246052214F8011B284601F0A1F9431B72
:1010F0000028F0D1049BD80644BF20228DF853204D
:1011000019079AF8001044BF2B228DF853202A2982
:1011100054D1039A11680432002903927CDB0791B1
:101120009AF801100AF1010A2E2959D0574C0322CE
:10113000204601F07DF940B1049B001B402404FAD5
:1011400000F0034304930AF1010A1AF8011B504806
:101150008DF82810062201F06BF9002862D04D4B63
:10116000002B52D003AA00924B4B424604A948469A
:10117000AFF3008007467A1C06D0099B3B440993D5
:101180009AF80030002B8CD1B8F80C305B0654BFB5
:1011900009984FF0FF301DB0BDE8F08FB4EB0A0B9B
:1011A000F2D05B46524641464846FFF77FFE01308B
:1011B000EAD0099B22785B4409937EE7A1F13002D3
:1011C000092AB1D8079B1AF8011F03EB830302EB2E
:1011D0004303A1F13002092AF5D92E290793A5D19D
:1011E0009AF801102A2927D1039B9AF802101A684D
:1011F00005920433002A0AF102000393B8BF4FF0AE
:10120000FF338246B8BF059390E7039B073323F073
:10121000070308330393B0E7494243F00203079101
:1012200004937DE703AA00921B4B424604A948465B
:1012300000F05EFA07469EE7A1F130020023092A7A
:1012400005930AF1010A3FF671AF1AF8011F03EB8B
:10125000830302EB4303A1F13002092AF5D9059378
:1012600064E74021FFF7FEF8C8F80000C8F8100056
:1012700018B14022C8F8142004E70C23C9F8003044
:101280004FF0FF3087E700BF1C9C0008249C00083B
:10129000289C000800000000AD0E00089368013B88
:1012A000002B936011DA10B49469A34209DB0A2978
:1012B00007D01368581C1060197008465DF8044B7D
:1012C00070475DF8044B00F06BBB1368581C10604E
:1012D00019700846704700BF9BB1F8B51344064625
:1012E0000F46541E5D1E01E0AC4208D014F8011FE9
:1012F0003A463046FFF7D2FF431CF5D1F8BD002037
:10130000F8BD0020704700BF936810B5144613B9AC
:101310005360184610BD00F041FE0023C4E90133BC
:1013200010BD00BF2DE9F04F88469FB015461C4602
:10133000814618B18369002B00F0A280924B98453A
:1013400000F0A480914B984500F0B180904B9845F7
:1013500008BFD9F80C80B8F80C30180740F19D8010
:10136000D8F81030002B00F0988000230B932978D8
:10137000884E059420238DF8313030238DF832309B
:101380000127002974D02C460B4604E014F8013FD5
:10139000002B00F08F80252BF8D1B4EB050B40F02B
:1013A0008C802378002B63D000234FF0FF32CDE9EF
:1013B0000723069309938DF85B301C93013404E0F6
:1013C000069A07FA03F3134306932546052214F8F9
:1013D000011B304601F02CF8831B0028F0D1069B3E
:1013E000D90644BF20228DF85B2029781A0744BF14
:1013F0002B228DF85B202A2970D1059A11680432BE
:1014000000290592C0F29B800991697801352E2947
:1014100076D0614C0322204601F00AF838B1069BD1
:10142000001B402404FA00F003430693013515F82D
:10143000011B5A488DF83010062200F0F9FF0028F1
:1014400000F08380564B002B6DD005AA0092554BBF
:10145000424606A94846AFF300800390039B013340
:1014600006D00B9B039A297813440B9300298AD149
:10147000B8F80C305B0617D40B981FB0BDE8F08F9E
:1014800000F06CFD404B98457FF45CAFD9F80480C8
:10149000B8F80C3018073FF563AF4146484600F0F6
:1014A000E3FA00283FF461AF4FF0FF30E5E7D9F8E9
:1014B000088050E7B4EB050BDAD0AA46C5F1010568
:1014C00003E0934536D91AF8011F42464846FFF714
:1014D000E5FE013005EB0A02F3D1C9E7A1F13002C4
:1014E000092A94D8099B15F8011F03EB830302EB2B
:1014F0004303A1F13002092AF5D92E29099388D195
:1015000069782A292BD1059BA9781A680792043398
:10151000002A05F102000593B8BF4FF0FF330546DE
:10152000B8BF079375E7059B073323F0070308331C
:10153000059396E70B9A23785A440B9232E7494277
:1015400043F00203099106935FE705AA0092154B49
:10155000424606A9484600F0CBF803907EE7A1F189
:1015600030020023092A079305F101053FF651AF28
:1015700015F8011F03EB830302EB4303A1F13002D3
:10158000092AF5D9079344E7488C0008288C0008FD
:10159000088C00081C9C0008249C0008289C00085B
:1015A00000000000D912000810B4054C8446134610
:1015B00020685DF8044B0A466146FFF7B3BE00BFE2
:1015C000000000202DE9F84F92461F460A698B68FB
:1015D000DDF828909A42B8BF1A46CAF8002091F860
:1015E00043300C46064613B10132CAF80020226887
:1015F00091065DD5DAF800300233CAF8003022686F
:1016000012F0060F11461ED1E168CB1A002BD8BF8D
:10161000114618DD04F1190B4FF0000805E0E568EC
:10162000DAF80030ED1A45450CDD01235A463946FB
:101630003046C847013008F10108F0D14FF0FF30C3
:10164000BDE8F88F216894F84330003B18BF0123B0
:101650008A060AD5E1185A1C302081F8430022443A
:1016600094F8451082F84310023304F143023946DE
:101670003046C8470130E1D0236803F00603042B4D
:101680001DD0A3682269934225DD4FF000089B1A04
:1016900098441A34002501E045451CDA012322460E
:1016A00039463046C847013005F10105F4D1C5E798
:1016B00012F0060F12D0003B18BF0123D5E7DAF86D
:1016C0000030E1682269C91AA368934221EAE178EF
:1016D000DDDC0029DDDC0020BDE8F88FE168DAF808
:1016E0000030CB1A002BD8BF114693DCABE700BF0C
:1016F0002DE9F0470C4684B09046227E0C990746AF
:10170000994604F14300002A33D0A2F15803DDB218
:10171000202D67D8202B65D8DFE813F0DE006400A9
:101720006400640064006400640064006400640099
:101730006400A3006E0064006400640064006E0036
:10174000640064006400640021007F00C000640045
:101750006400AE0064007F0064006400E50023685C
:101760001A0640F104810B6862691D1D0D601B683B
:101770001A60002382462361CDF80090434603AAF5
:1017800021463846FFF71EFF013020D0236952461C
:1017900041463846C847013019D02368E068039EA7
:1017A0009B0719D5831B002B16DD04F1190A0025B0
:1017B00004E0E068039E831BAB420DDD012352462B
:1017C00041463846C847013005F10105F1D14FF0D7
:1017D000FF3004B0BDE8F087B042B8BF304604B077
:1017E000BDE8F087012384F84220236104F1420A16
:1017F000002384F84330BFE723681A0602D45E064C
:1018000000F1C1800D682A6804350D601546002A74
:101810006BDBDFF884C10A2610E023681D0640F167
:101820009C800B681D1D0D601D68DFF86CC16F2A60
:101830000CBF08260A26002384F843306268A260A1
:10184000002A7FDB236823F004032360002D5BD193
:10185000002A79D18246082E65D0A0EB0A002061CB
:101860008AE70B680122186804330B6004F1420A0E
:1018700084F842002261BBE70B686268181D0860AB
:10188000D3F800A00021504600F0D2FD002800F05F
:101890008180A0EB0A0060602061A9E7236843F023
:1018A000200323607822DFF8F4C084F845200A681A
:1018B000151D0D601D0643D4590641D51588DE0758
:1018C00044BF43F020032360002D44D1236823F05C
:1018D000200323601026AEE7582384F84530DFF854
:1018E000B8C02368E3E72368DCE76268A2602D21C3
:1018F000002AC5F1000584F8431002DB23F004033D
:101900002360DFF894C00A268246B5FBF6F306FB97
:1019100013512A461CF801100AF8011DB2421D4657
:10192000F3D2082E99D12368D90796D56268236926
:101930009A4292DC30230AF8013C0AF1FF3A8CE724
:101940001568BCE7002DDFD19CF8003084F84230E8
:1019500004F1420A7FE710266DE713F0400F0B6891
:1019600003F104050D600CBF1D681D885DE713F0D1
:10197000400F0B68626903F104050D601B6814BF1A
:101980001A801A60F5E60A68B2F9005004320A605B
:101990002A463CE760687FE7309C0008449C0008CA
:1019A000F8B50D461446064608B1836943B3254B86
:1019B0009C422AD0244B9C4229D0244B9C4208BFF5
:1019C000F468A389A269A2601A0722D5236903B328
:1019D00022686169D31AEDB299422F4629DD01339D
:1019E000A1680139A160511C2160157062699A4299
:1019F00016D0A389DB0701D50A2D11D03846F8BDD2
:101A000000F0ACFA0F4B9C42D4D17468D9E7B468AB
:101A1000D7E72146304600F027F838B92369D7E7E1
:101A20002146304600F034F90028E7D04FF0FF3768
:101A3000E4E72146304600F02BF90028F6D1226871
:101A40000123CDE7488C0008288C0008088C00088A
:101A500010B4044C03460A4620685DF8044B19464E
:101A6000FFF79EBF000000203C4B70B51D68064686
:101A70000C460DB1AB69E3B1394B9C421FD0394BD9
:101A80009C424DD0384B9C4208BFEC68B4F90C30F6
:101A900018079AB219D5216911B312F001002FD09D
:101AA0000020A06060694042A06100292ED0002083
:101AB00070BD284600F052FA294B9C42DFD16C6879
:101AC000B4F90C3018079AB2E5D4D1063ED55207C6
:101AD00028D4216943F00803A3819AB20029DCD1FC
:101AE00002F42070B0F5007FD7D02146304600F0D8
:101AF00011FCB4F90C3021699AB212F00100CFD177
:101B0000950758BF6069A0600029D0D1120658BF60
:101B10000846CDD543F04003A3814FF0FF3070BDA0
:101B2000AC68B3E7616B51B104F14402914204D057
:101B30003046FEF735FCB4F90C30002262632169AF
:101B40000022C4E9001223F02403C3E7092243F072
:101B5000400332604FF0FF30A38170BD00000020D1
:101B6000488C0008288C0008088C000808B506205E
:101B700000F062FE012003F055FB00BF8B891A07BD
:101B80002DE9F0410C4680463FD44A68002A58DDD2
:101B9000E66A002E52D00022D8F80050C8F8002083
:101BA00013F4805251D10123216A4046B047431CAF
:101BB0005ED0A389E66A5F0705D56368C01A636BC8
:101BC0000BB1236CC01A216A024600234046B0477D
:101BD000411C3CD1D8F80030002B38D01D2B01D04F
:101BE000162B4DD123690022C4E90032616BC8F87D
:101BF000005019B304F14403994202D04046FEF765
:101C0000CFFB00206063BDE8F0810E69B6B10D68BE
:101C10000E609A070CBF4B690023AD1B8B600BE075
:101C20002B463246216AA76A4046B847B0F1000CFD
:101C3000A5EB0C05664413DD002DF1DC0020BDE8AA
:101C4000F0810A6C002AA3DCF8E7606DB3E700239B
:101C5000636023692360A389DB04C7D56065C5E79A
:101C6000A38943F040034FF0FF30A381BDE8F0812A
:101C7000D8F80030002B9CD01D2B06D0162B04D09A
:101C8000A38943F04003A381D9E7C8F80050D5E702
:101C900038B50B69BBB10D46044608B18369B3B1D1
:101CA0000D4B9D4211D00D4B9D4213D00C4B9D42CC
:101CB00008BFE568B5F90C302BB129462046BDE8D0
:101CC0003840FFF75BBF002038BD6568F2E700F0E1
:101CD00045F9E5E7A568EDE7488C0008288C000881
:101CE000088C000838B540B303690446E3B1174BCC
:101CF0001D680DB1AB69CBB1154B9C420FD0154B94
:101D00009C4221D0144B9C4208BFEC68B4F90C30C3
:101D100053B121462846BDE83840FFF72FBF6C6815
:101D2000B4F90C30002BF4D1002038BD284600F067
:101D300015F9074B9C42E2D1F1E7084B08491868B6
:101D4000BDE8384000F0C2BAAC68DFE70000002010
:101D5000488C0008288C0008088C0008008B0008BC
:101D6000911C000800207047014900F0AFBA00BF85
:101D7000911C00080020704770B568224D1E02FBC0
:101D800005F50E4605F17401FEF76CFB044640B103
:101D900000210C30C4E90016A06005F16802FEF7CE
:101DA000ADFA204670BD00BF274B2DE9F0411E68FB
:101DB000B369074653B348364FF00408D6E90134F7
:101DC000013B04D51EE05A1C04F168041AD0B4F992
:101DD0000C50013B002DF6D11C4B6566C4E9005543
:101DE000C4E90253C4E90455A5610822294604F157
:101DF0005C00FEF783FAC4E90D55C4E9125520468C
:101E0000BDE8F08135682DB12E46D7E7304600F0A9
:101E10001FF8D0E74FF4D6713846FEF723FB04468F
:101E200068B10560C0F804800C302946A0602546E2
:101E30004FF4D072FEF762FA34602E46BEE70C23F0
:101E400030603B60DBE700BF008B00080100FFFF54
:101E50002DE9F84F344B35491A68816290424FF0B2
:101E60000003C0E91233036504BF01238361054603
:101E7000FFF79AFF68602846FFF796FFA86028469C
:101E8000FFF792FF6F68E86000240423C7E902436C
:101E900008222146C7E90044C7E904447C66BC61C6
:101EA00007F15C00FEF72AFADFF88CB0AE68DFF8C5
:101EB0008CA0DFF88C90DFF88C801D4BC7F828A031
:101EC000C7E9087BC7F82C90C7F830800822F36078
:101ED000C6E90044C6E904447466B460B4612146AE
:101EE00006F15C00FEF70AFAC6E9086BC6E90AA922
:101EF000C6F83080EE680F4BF360C6E90044C6E9CF
:101F000004447466B460B4612146082206F15C00A2
:101F1000FEF7F4F90123C6E9086BC6E90B98C6F889
:101F200028A0AB61BDE8F88F008B0008691D000890
:101F30000900010012000200A9290008D1290008A7
:101F4000112A0008312A0008024B0349186800F0E2
:101F5000BDB900BF008B0008911C0008836903B95C
:101F600076E77047704700BF704700BF704700BFFB
:101F7000704700BF024B0349186800F087B900BFE3
:101F800000000020651D0008024B0349186800F09E
:101F90007DB900BF00000020751D00089368002B6C
:101FA00000F085802DE9F04FB1F90C300C4619078F
:101FB000804683B0174698B225D523691BB310F02D
:101FC00002033D682DD04FF0000ADFF8BCB2564640
:101FD000B9465E453346524628BF5B464046002E12
:101FE00052D0216AA76AB847002856DDD9F80830D0
:101FF0001B1A8244361AC9F80830002BE9D1002098
:1020000003B0BDE8F08F21464046FFF72DFD0028C4
:1020100040F03681B4F90C303D6898B210F00203FC
:10202000D1D110F0010944D14E46009746B3820544
:10203000D4F808B040F18380B3455A4600F2B2802C
:1020400010F4906F40F0BF8020680192494600F084
:10205000D9FAA368019AA3EB0B012368A16013448A
:10206000B24623600026009B9868A0EB0A00D1448A
:1020700098600028C3D0B4F90C0080B2002ED6D1ED
:10208000D5E900960835D1E7D5E900A60835A0E7DF
:1020900021464046FFF7FCFD80B3B4F90C3043F015
:1020A00040034FF0FF30A38103B0BDE8F08F002064
:1020B00070471E46AA46994618461D46009756B3D5
:1020C00088B34A46D4E904132068B24228BF324696
:1020D000884205D9A16803EB010B5A4500F3A6809D
:1020E000934263DC216AA76A2A464046B847B0F1AA
:1020F000000BD2DDB9EB0B09CAD00120009A93681E
:10210000A3EB0B035D44A6EB0B069360002B3FF49F
:1021100076AF002ED4D10AF1080353E902569A464D
:102120000833002EF9D032460A21284600F080F903
:10213000002800F09C800130A0EB0509C1E7206871
:102140002369984216D86369B34213D86FF00042EE
:10215000B24228BF3246216A92FBF3F2A76A02FB21
:1021600003F340464A46B847B0F1000A95DDA6EBB6
:102170000A0678E7B345DA4628BFB24652464946D2
:1021800000F040FAA3682268A3EB0A035244A3605C
:102190002260002BEBD121464046FFF779FD002855
:1021A000E5D07AE72068B34632464EE729460192E9
:1021B00000F028FA019AA3689B1AA36023681344CD
:1021C0002360934696E723682169A3EB010B6369BB
:1021D00003EB430A0AEBDA7A0BF101034FEA6A0ACE
:1021E00033445345524684BF9A46524643052CD544
:1021F00011464046FEF736F900283BD05A46216981
:10220000019000F065F9A289019B22F4906242F0EE
:102210008002A28103EB0B002361AAEB0B03C4F83D
:1022200014A0A3602060B34632460EE729465A4602
:1022300000F0E8F923685B44236021464046FFF73D
:1022400027FD00283FF456AF27E74046FEF706FE7D
:1022500003460028DED121694046FEF7A1F8B4F913
:102260000C300C2223F08003C8F8002017E7721C02
:10227000914627E70C22B4F90C30C8F800200EE78D
:102280004FF0FF30BCE600BF00FCFF7F2DE9F041BE
:10229000884600F148070026D7E90154013D0FD4D4
:1022A000A389012B05F1FF3506D9B4F90E300133AE
:1022B000204601D0C04706436B1C04F16804EFD1EF
:1022C0003F68002FE8D13046BDE8F0812DE9F843A2
:1022D0000746884600F148064FF00009D6E9015448
:1022E000013D11D4A389012B05F1FF3508D9B4F9BB
:1022F0000E300133214603D03846C04749EA000971
:102300006B1C04F16804EDD13668002EE6D1484616
:10231000BDE8F883F0B58B890C46990797B007D5CF
:1023200004F147030122C4E90432236017B0F0BD71
:10233000B4F90E10002905462DDB6A4600F0A4FB17
:10234000002827DB019E06F470464FF48067A6F54F
:102350000056B6FA86F6394628467609FEF782F820
:1023600030B3A3891A4AAA6243F08003C4E9040780
:10237000A3812060002ED9D0B4F90E10284600F0B9
:1023800099FB0028D2D0A38923F0030343F0010373
:10239000A381CBE7A38913F0800F14BF40274FF42C
:1023A0008067394628460026FEF75CF80028D8D119
:1023B000B4F90C309A05B9D423F0030304F14702B1
:1023C00043F002030121C4E90421A3812260ADE7A7
:1023D000691D000870B50C46B1F90E10002996B0C1
:1023E00016461D4613DB6A4600F04EFB00280EDB46
:1023F000019901F47041A1F50051B1FA81F14FF456
:102400008063490900202960336016B070BDB4F9BB
:102410000C3000221B062A6004D5402300203360C4
:1024200016B070BD4FF480630020336016B070BDED
:1024300001F0FF01102A2BDB10F0070F08D010F875
:10244000013B013A8B422DD010F0070F42B3F6D179
:10245000F0B441EA012141EA014122F007047FF092
:1024600000070023F0E80256083C85EA010586EAE9
:10247000010685FA47F5A3FA87F586FA47F6A5FA25
:1024800087F68EB9EED1F0BC01F0FF0102F0070231
:1024900032B110F8013B013A83EA010313B1F8D1DC
:1024A0000020704701387047002D06BF35460338BD
:1024B000073815F0010F07D1013015F4807F02BFF6
:1024C000013015F4C03F0130F0BC0138704700BF47
:1024D000844641EA000313F003036DD1403A41D32F
:1024E00051F8043B40F8043B51F8043B40F8043BEE
:1024F00051F8043B40F8043B51F8043B40F8043BDE
:1025000051F8043B40F8043B51F8043B40F8043BCD
:1025100051F8043B40F8043B51F8043B40F8043BBD
:1025200051F8043B40F8043B51F8043B40F8043BAD
:1025300051F8043B40F8043B51F8043B40F8043B9D
:1025400051F8043B40F8043B51F8043B40F8043B8D
:1025500051F8043B40F8043B51F8043B40F8043B7D
:10256000403ABDD2303211D351F8043B40F8043B1D
:1025700051F8043B40F8043B51F8043B40F8043B5D
:1025800051F8043B40F8043B103AEDD20C3205D32D
:1025900051F8043B40F8043B043AF9D2043208D025
:1025A000D2071CBF11F8013B00F8013B01D30B8897
:1025B00003806046704700BF082A13D38B078DD075
:1025C00010F003038AD0C3F10403D21ADB071CBF47
:1025D00011F8013B00F8013B80D331F8023B20F8B1
:1025E000023B7BE7043AD9D3013A11F8013B00F8EA
:1025F000013BF9D20B7803704B7843708B78837072
:102600006046704788420DD98B1883420AD900EB87
:10261000020CBAB1624613F801CD02F801CD99421D
:10262000F9D170470F2A0ED8034602F1FF3C4AB198
:102630000CF1010C013B8C4411F8012B03F8012F24
:102640006145F9D1704740EA01039B0750D1A2F1DF
:10265000100370B501F1200C23F00F0501F1100EED
:1026600000F11004AC441B095EF8105C44F8105CE7
:102670005EF80C5C44F80C5C5EF8085C44F8085C9E
:102680005EF8045C44F8045C0EF1100EE64504F1BB
:102690001004E9D1013312F00C0F01EB031102F029
:1026A0000F0400EB031327D0043C24F003064FEA89
:1026B000940C1E441C1F8E465EF8045B44F8045FB5
:1026C000B442F9D10CF1010402F0030203EB8403DC
:1026D00001EB840102F1FF3C4AB10CF1010C013B1A
:1026E0008C4411F8012B03F8012F6145F9D170BD1D
:1026F00002F1FF3C03469BE72246EBE751F8040C4E
:102700000028A0F10400BCBF0B58C018704700BFE0
:1027100038B5446C0CB1002038BD80210546FDF76A
:10272000A1FE0246686430B1031F7C3243F8044FB7
:102730009342FBD1EFE74FF0FF3038BD1F29F8B5CA
:10274000054608D8466C0C4617464EB156F824008C
:1027500046F82470F8BD162303604FF0FF30F8BD33
:102760008021FDF77FFE0646686440B1031F00F13B
:102770007C05002143F8041F9D42FBD1E6E74FF0A2
:10278000FF30F8BD1F2938B5054620D8426C0C46ED
:102790006AB152F8213053B1012B16D0591C10D018
:1027A0000025204642F824509847284638BD284640
:1027B00000F0F8F8224601462846BDE8384000F00F
:1027C000DBB816230360012038BD002038BD162376
:1027D00003604FF0FF3038BD1F292AD8426C38B54E
:1027E0000C46054682B152F8243002EB84024BB10C
:1027F000591C19D0012B15D000252046156098478B
:10280000284638BD012038BD8021FDF72BFE024649
:10281000686458B1031F00217C3043F8041F9842BC
:10282000FBD1E0E7032038BD022038BD4FF0FF3078
:1028300038BD4FF0FF30704738B5144B1F281D6866
:102840001FD86A6C044662B152F820304BB1012B9C
:1028500015D0591C0FD0002542F820509847284623
:1028600038BD284600F09EF8224601462846BDE8BD
:10287000384000F081B816232B60012038BD0020BD
:1028800038BD16232B604FF0FF3038BD000000200C
:10289000124B1F2870B51E6808D80D46716C04468F
:1028A00049B151F8240041F8245070BD162333601B
:1028B0004FF0FF3070BD80213046FDF7D3FD01465B
:1028C000706440B1031F00F17C0C002243F8042F18
:1028D0006345FBD1E5E74FF0FF3070BD00000020FD
:1028E00038B50B4B1D686C6C0CB1002038BD8021D5
:1028F0002846FDF7B7FD686438B1031F00F17C027C
:1029000043F8044F9342FBD1EFE74FF0FF3038BD5F
:102910000000002038B5174B1F281D6826D86A6CA8
:10292000044682B152F8243002EB84024BB1591CA8
:102930001AD0012B16D0002520461560984728464E
:1029400038BD012038BD80212846FDF78BFD0246A9
:10295000686458B1031F00217C3043F8041F834290
:10296000FBD1DFE7032038BD022038BD4FF0FF3038
:1029700038BD00BF0000002070B50C46084D03466E
:102980000026204611461C462E6002F043FC431CE4
:1029900000D070BD2B68002BFBD0236070BD00BF42
:1029A000A400002002F034BC10B50C46B1F90E10A2
:1029B00000F0A8F8002803DB636D0344636510BDD5
:1029C000A38923F48053A38110BD00BF002070476A
:1029D0002DE9F0410C46B1F90C101F46CB05054618
:1029E00016460BD421F48051A1813B46B4F90E1058
:1029F00032462846BDE8F04100F01EB8B4F90E108A
:102A00000223002200F068F8B4F90C10EAE700BFD6
:102A100010B50C46B1F90E1000F05EF8A389421C07
:102A20000EBF23F4805343F480536065A38110BD2F
:102A3000B1F90E1000F016B838B50C46084D8446B2
:102A4000114620461A4600232B60644602F000FC23
:102A5000431C00D038BD2B68002BFBD0236038BD51
:102A6000A400002038B5074D0022044608462A601D
:102A700002F0FCFB431C00D038BD2B68002BFBD0C0
:102A8000236038BDA400002070B50C46084D0346F5
:102A90000026204611461C462E6002F0EAFB431C2D
:102AA00000D070BD2B68002BFBD0236070BD00BF31
:102AB000A400002038B5074D0022044608462A60CD
:102AC00002F0DCFB431C00D038BD2B68002BFBD090
:102AD000236038BDA400002038B50C46084D84465C
:102AE000114620461A4600232B60644602F0C8FBBC
:102AF000431C00D038BD2B68002BFBD0236038BDB1
:102B0000A400002038B50C46084D844611462046E6
:102B10001A4600232B60644602F08AFB431C00D057
:102B200038BD2B68002BFBD0236038BDA4000020EB
:102B3000B0EE407B17EE903A1B4A23F000439342DD
:102B40001CDD1A4A934202DD30EE400B704700B59F
:102B500085B0684600F02CF800F0030001289DEDD8
:102B6000021B9DED000B0ED0022813D070B100F0B7
:102B70006BF9B1EE400B05B05DF804FB9FED081B4F
:102B8000002000F051BD00F05FF9F4E7012000F0F3
:102B90004BFDF0E7012000F047FDB1EE400BEAE706
:102BA0000000000000000000FB21E93FFFFFEF7F75
:102BB00070B553EC102B9C4923F000458D4288B032
:102BC00004466ADD99498D421E461BDC002B9FEDB1
:102BD000867B40F3EC8030EE477BA1F51B21A1F50D
:102BE000F0618D426AD09FED826B012037EE465B2B
:102BF00037EE457B84ED005B37EE467B84ED027B50
:102C000008B070BD8A498D4260DD8A498D424DDC35
:102C10002A1510EE100AA2F21642A5EB025141EC61
:102C2000170B9FED755BBDEEC76BB8EEC66B37EE4D
:102C3000467B27EE057BFDEEC74B8DED026BB8EEB4
:102C4000E46B37EE467B27EE057BB5EE407BF1EE7D
:102C500010FA8DED046B8DED067B40F0978014EE3D
:102C6000903A002B0CBF01230223734901910221EA
:102C7000009102A8214600F07FF9002EC0DA94ED01
:102C8000006B94ED027BB1EE466BB1EE477B84EDB9
:102C9000006B84ED027B4042B2E700200021C4E9D2
:102CA0000201002084ED000B08B070BD30EE407BC7
:102CB000002084ED027B84ED007BA1E79FED505B5B
:102CC0009FED516B37EE457B01208FE700F004FD4F
:102CD000B6EE007B9FED4E5BA0EE057BFDEEC77B65
:102CE0009FED413B17EE900A9FED416B1F28B8EE18
:102CF000E75BB1EE454BA5EE430B25EE067B1CDCF6
:102D00004E4B421E53F82230AB4216D030EE476B8A
:102D100084ED006B30EE460B30EE470B002E84ED59
:102D2000020BBFF66DAFB1EE466BB1EE400B84ED1A
:102D3000006B84ED020B404262E730EE476B16EE0B
:102D4000903AC3F30A532A15C3EB1555102DDFDD56
:102D5000B0EE403B9FED2A7B9FED2B6BA4EE073B33
:102D600030EE430BA4EE070BB0EE407B95EE067BF6
:102D700033EE476B16EE903AC3F30A53D21A312A58
:102D800006DCB0EE430B84ED006BC3E703236CE776
:102D90009FED216BB0EE430B9FED212BA4EE060BB4
:102DA00033EE407BA4EE067B95EE027BAEE7244932
:102DB00030EE077B8D420ED09FED0D6B4FF0FF3054
:102DC00037EE065B37EE457B84ED005B37EE067B26
:102DD00084ED027B14E79FED0A5B9FED0B6B37EEF2
:102DE000057B4FF0FF30EBE700004054FB21F93F3B
:102DF0003163621A61B4D03D0000000000007041F0
:102E00000000601A61B4D03D7370032E8A19A33B91
:102E100083C8C96D305FE43F0000002E8A19A33BD0
:102E2000C14920259A837B39FB21E93F7BD90240A8
:102E3000FB213941FFFFEF7FE88C0008688C000818
:102E4000FB21F93F0000000010EE903A23F0004310
:102E5000B3F1795F2DED028B2EDAFDEEC07B17EE1C
:102E6000903A002B65D020EE004B9FED358B9FED07
:102E7000362B9FED373BA4EE082B9FED375BA4EE7E
:102E8000023B9FED376BA4EE035B9FED377BA4EE17
:102E9000056BA4EE067B24EE077B21EE400BB6EE1D
:102EA000006BA4EE070BBDEC028BB7EE007B94EE3B
:102EB000060B37EE400B70479FED218B20EE004B49
:102EC0009FED212B9FED223BA4EE082B9FED225B73
:102ED000A2EE043B9FED226BA3EE045B9FED227BF1
:102EE000A5EE046B224AA6EE047B934227EE047BF8
:102EF000D3DD204A934217DCB7EE006B0020A3F528
:102F0000001141EC150B36EE456BB6EE003B21EEA1
:102F1000400B94EE035BA4EE070BBDEC028B35EE89
:102F2000400B36EE400B7047B6EE076BB5EE025B1A
:102F3000EBE7B7EE000BBDEC028B7047AFF3008000
:102F4000D43888BEE9FAA8BDC4B1B4BD9EEE213E16
:102F5000AD529C804F7E92BE9015CB19A001FA3ED7
:102F60007751C1166CC156BF4C5555555555A53FA7
:102F70003233D33F0000E93F2DE9F04F2DED088BB0
:102F8000ADF5157D1C4604930791AD4BA69912F142
:102F9000140F53F82150824604F1FF38C0F2A68284
:102FA000A849D31E81FB0301DB17C3EBA1030393E5
:102FB0000133A3EB8303DB00D3180693039B15EBCC
:102FC0000801A3EB08031AD401319FED976BA79872
:102FD00019441CAA0AE050F8234007EE904A013336
:102FE000B8EEE77B8B42A2EC027B08D0002BF2DA32
:102FF000B0EE467B01338B42A2EC027BF6D1002D72
:10300000C0F2D482049B1CAA02EBC3046CAE4FEA4C
:10301000C30C4046EF180AEBC301B8F1000F9FED57
:10302000827B09DB22465346B3EC025B32ED026B36
:103030008B42A5EE067BF7D10130B842A6EC027BAD
:1030400004F10804E9D107AB08AF03EB85099FED54
:10305000789B07EB85039FED788B083BDDF818B074
:1030600005930AEB0C046CAE2946019594AB03EB77
:10307000C103002913ED280B16DD06EBC1033A4608
:1030800020EE097B33ED025BB0EE406BBDEEC77BFB
:10309000B342B8EEC77BA7EE486BBDEEC66B37EE0A
:1030A000050BA2EC016AEBD15846029100F0A4FB9B
:1030B000B0EE40ABB4EE000B2AEE000B00F018FBB4
:1030C000B2EE007BA0EE47ABBDEECABBBBF1000F7A
:1030D000B8EECB7B02993AEE47AB75DD01F1FF3CD0
:1030E000CBF1180357F82C2042FA03F000FA03F34F
:1030F000D31ACBF117051BEE102A43FA05F502444B
:10310000002D47F82C300BEE102A65DCB5EE40ABF5
:10311000F1EE10FA40F0C780019B01F1FF3C6345DE
:103120000EDC01F18042013A07EB8202002052F8E6
:1031300004394A4540EA0300F9D1002840F0F580FF
:10314000019B013B57F82330002B40F0E980059BA1
:10315000012553F804290135002AFAD001F1010EA6
:103160000D447046049B1944039B03EB0E0C0CF1B9
:10317000804CA79B0CF1FF3C03EB8C0C1CAB06EBCB
:10318000CE0E03EBC1019CED017AB8EEC77BB8F11E
:10319000000F81ED007B0CF1040C0A469FED226BC1
:1031A00001F1080109DB534601E032ED027BB3EC8B
:1031B000025BA342A5EE076BF7D10130A842AEEC4B
:1031C000026BE0DD294651E740F0A0804B1E57F826
:1031D0002350ED15002D99DD1BEE103A002903F167
:1031E00001030BEE103A40F397813A68002A40F051
:1031F000858001292FD03B46012053F8042F002A57
:103200007FD0431CC2F18072994247F8202021DD13
:1032100057F8232007EB810C07EB83036FF07F4007
:1032200013E000BFAFF300800000000000000000CA
:10323000000000000000703E00000000000070412F
:10324000F08D0008ABAAAA2A1A68821A43F8042B48
:103250006345F9D10122BBF1000F0DDDBBF1010F78
:1032600000F03C81BBF1020F06D1481E57F8203018
:10327000C3F3150347F82030022D7FF447AFB7EEB4
:10328000000B30EE4AAB002A3FF440AF58460291A3
:1032900000F0B2FA3AEE40ABB5EE40ABF1EE10FA08
:1032A00002993FF439AF069CB0EE4A0B604202959A
:1032B0008B46019D00F0A0FA9FEDBF6BB4EEC60BEC
:1032C000F1EE10FA029AC0F24D819FEDBD7B20EE27
:1032D000077BBDEEC77B0BF10103B8EEC75BA5EE24
:1032E000460BBDEEC00B183410EE101A47F82B1029
:1032F00017EE101A069447F823102DE00123002042
:1033000080E7013088427FF478AFA4E7B6EE007B17
:10331000B4EEC7ABF1EE10FA80F2ED800025F5E6D1
:1033200001F1010E704675461CE78B460699A1F126
:10333000180057F82C1006902A466346019D59B98B
:103340000BF18041023907EB810151F80449013B3F
:103350001838002CF9D006900698B7EE000BCDE98E
:10336000012300F049FA029B019A002BC0F236813A
:103370006CA99FED936B01EBC30403F1010E07EB06
:103380008E014FEAC30C04F1080031ED017AB94215
:10339000B8EEC77B27EE007B20EE060B20ED027B0C
:1033A000F3D19FED894B274600260DF58878002D37
:1033B0009FED877B10DBB0EE446B874C38460021D5
:1033C00003E08E4208DBB4EC026BB0EC025B01312F
:1033D0008D42A5EE067BF4DA08EBC601B34281ED1F
:1033E000007BA7F1080706F1010101D00E46DEE7D8
:1033F000A69902291EDC002900F3908010D19FEDD0
:10340000747B0CF10803434433ED026B984537EEAF
:10341000067BF9D10AB1B1EE477B079B83ED007BB8
:103420001BEE103A03F007000DF5157DBDEC088B7F
:10343000BDE8F08FA6990329F2D1002B00F0EB80B4
:1034400008EB0C0191ED006B08EBC30131ED027B41
:10345000B0EE465B884536EE076B37EE467B81ED76
:10346000006B37EE057B81ED027BEFD1012B40F342
:10347000D28003F10053C444013BDB009CED006BA0
:1034800003F10801414446A831ED027BB0EE465BF2
:10349000884236EE076B37EE467B81ED006B37EEE8
:1034A000057B81ED027BEFD19FED497B10334344D7
:1034B00008F1100133ED026B994237EE067BF9D12A
:1034C000002A57D1D8E90001D8E90223079C84EDEE
:1034D000047BC4E90001C4E90223A1E7481E57F8B0
:1034E0002030C3F3160347F82030C5E600216FF003
:1034F0001703039160E51BEE103A002903F1010365
:103500000BEE103AC8BF02253FF76FAEB7EE007B57
:1035100037EE4AAB0225F9E500229CE69FED2C7BB5
:1035200008EBCE0E3EED026BF04537EE067BF9D18F
:1035300098ED006B82BB0799002B81ED007B36EE86
:10354000477B0BDD46A80121B0EC026B01318B42B9
:1035500037EE067BF8DA0AB1B1EE477B079B83EDC5
:10356000027B5DE7BDEEC00B10EE103A47F82B3042
:103570005B46F1E698ED005BB1EE477B98ED026BA0
:10358000B1EE455B079BB1EE466B83ED005B83EDCF
:10359000026B83ED047B43E70799B1EE475B002B99
:1035A00081ED005B36EE477BCCDCD5E7049B4FEA30
:1035B000C30C48E5AFF3008000000000000070413C
:1035C000000000000000703E00000040FB21F93FB9
:1035D0000000000000000000088E0008A6990229E3
:1035E00009DC002912DC7FF41BAF9FED0D7B002A64
:1035F0003FF413AF0FE7A69B032B7FF411AF9FEDB2
:10360000087B0DF58878002AB4D15BE79FED047B39
:103610000DF588788CE79FED027B002AAAD151E74F
:10362000000000000000000010EE903A23F000437C
:10363000B3F1795F04DAFDEEC07B17EE903A5BB32D
:1036400020EE007B9FED162B9FED173B9FED184B57
:10365000A7EE023B9FED185BA3EE074B9FED186BA7
:10366000A4EE075BA5EE076B20EE075B30B99FED7C
:10367000164BA7EE064BA4EE050B70479FED144BBF
:1036800026EE456BB6EE003BA1EE036B96EE071BF4
:10369000A5EE041B30EE410B704700BFAFF3008076
:1036A0007CD5CF5A3AD9E53DEB9C2B8AE6E55ABE4C
:1036B0007DFEB157E31DC73ED561C119A0012ABFE8
:1036C000A6F810111111813F495555555555C5BFE3
:1036D000495555555555C53F51EC100B10EE102A64
:1036E00021F0004343EC102B704700BF00000000A6
:1036F00082B08DED000B01990098C1F30A52A2F23D
:10370000FF33132B31DC002B21DB394A1A4101EA4C
:10371000020C5CEA000C2DD09FED337B9DED006B1D
:1037200036EE077BB5EEC07BF1EE10FA09DD00291D
:1037300004DA4FF4801040FA03F3194421EA02013D
:1037400000200B46024643EC102B02B070479FED61
:10375000267B30EE077BB5EEC07BF1EE10FAF0DD94
:10376000002928DB00200146EBE7332B06DDB3F50B
:10377000806F1BD09DED000B02B07047A2F2134288
:103780004FF0FF3C2CFA02F20242F3D09FED167B81
:103790009DED006B36EE077BB5EEC07BF1EE10FAC7
:1037A000CFDD002910DB20EA0200CAE79DED007B97
:1037B00037EE070BE0E721F000430E4A18430028DC
:1037C00018BF11460020BCE7142B09D04FF0010CA4
:1037D000C3F134030CFA03F3181828BF6144E2E77D
:1037E0000131E0E7AFF300809C7500883CE4377E50
:1037F000FFFF0F000000F0BF53EC102BC3F30A5182
:1038000000B59C4671BB10EE101A23F0004C5CEA28
:10381000010125D09FED2E7B394920EE077B8842A0
:1038200053EC172B4CDBC3F30A519C463639014449
:1038300040F2FE7E71451DDC002937DC11F1350FA9
:1038400025DA4CF25031884214DC9FED230B9FEDBA
:10385000246BB0EE407B002B20FE060B20EE070B06
:103860005DF804FB40F2FF7E7145E0D130EE000BC5
:103870005DF804FB9FED1C0B9FED1D6BB0EE407BD4
:10388000002B20FE060B20EE070B5DF804FB2CF04E
:10389000FF4C36312CF4E00C9FED177B4CEA0153C2
:1038A00043EC102B20EE070B5DF804FB2CF0FF4CD3
:1038B0002CF4E00C4CEA015343EC102B5DF804FBB4
:1038C0009FED050B27EE000B5DF804FBAFF30080C6
:1038D000000000000000504359F3F8C21F6EA5011C
:1038E00059F3F8C21F6EA5819C7500883CE4377EB1
:1038F0009C7500883CE437FE000000000000903C0E
:10390000B03CFFFF53B94AB9002908BF00281CBFCB
:103910004FF0FF314FF0FF3000F074B9ADF1080CFB
:103920006DE904CE00F006F8DDF804E0DDE90223DD
:1039300004B070472DE9F047089D04468E46002BE1
:103940004DD18A42944669D9B2FA82F252B101FA53
:1039500002F3C2F1200120FA01F10CFA02FC41EA63
:10396000030E94404FEA1C48210CBEFBF8F61FFAE8
:103970008CF708FB16E341EA034306FB07F1994283
:103980000AD91CEB030306F1FF3080F01F81994236
:1039900040F21C81023E63445B1AA4B2B3FBF8F010
:1039A00008FB103344EA034400FB07F7A7420AD997
:1039B0001CEB040400F1FF3380F00A81A74240F2BF
:1039C00007816444023840EA0640E41B00261DB12A
:1039D000D4400023C5E900433146BDE8F0878B425F
:1039E00009D9002D00F0EF800026C5E9000130461E
:1039F0003146BDE8F087B3FA83F6002E4AD18B42F8
:103A000002D3824200F2F980841A61EB03030120A1
:103A10009E46002DE0D0C5E9004EDDE702B9FFDE8D
:103A2000B2FA82F2002A40F09280A1EB0C014FEA38
:103A30001C471FFA8CFE0126200CB1FBF7F307FB95
:103A4000131140EA01410EFB03F0884208D91CEB38
:103A5000010103F1FF3802D2884200F2CB804346D5
:103A6000091AA4B2B1FBF7F007FB101144EA0144B4
:103A70000EFB00FEA64508D91CEB040400F1FF3143
:103A800002D2A64500F2BB800846A4EB0E0440EA31
:103A900003409CE7C6F12007B34022FA07FC4CEA3A
:103AA000030C20FA07F401FA06F31C43F9404FEA2D
:103AB0001C4900FA06F3B1FBF9F8200C1FFA8CFE42
:103AC00009FB181140EA014108FB0EF0884202FA96
:103AD00006F20BD91CEB010108F1FF3A80F0888057
:103AE000884240F28580A8F102086144091AA4B214
:103AF000B1FBF9F009FB101144EA014100FB0EFE95
:103B00008E4508D91CEB010100F1FF346CD28E45C3
:103B10006AD90238614440EA0840A0FB0294A1EB54
:103B20000E01A142C846A64656D353D05DB1B3EBB1
:103B3000080261EB0E0101FA07F722FA06F3F140E1
:103B40001F43C5E9007100263146BDE8F087C2F188
:103B50002003D8400CFA02FC21FA03F39140014300
:103B60004FEA1C471FFA8CFEB3FBF7F007FB103639
:103B70000B0C43EA064300FB0EF69E4204FA02F4E5
:103B800008D91CEB030300F1FF382FD29E422DD938
:103B9000023863449B1B89B2B3FBF7F607FB16336D
:103BA00041EA034106FB0EF38B4208D91CEB0101ED
:103BB00006F1FF3816D28B4214D9023E6144C91A6D
:103BC00046EA004638E72E46284605E70646E3E67D
:103BD0001846F8E64B45A9D2B9EB020864EB0C0E87
:103BE0000138A3E74646EAE7204694E74046D1E796
:103BF000D0467BE7023B614432E7304609E7644444
:103C0000023842E7704700BF10B50446134B1A78DC
:103C100002F01F02124941F822001A780132D2B292
:103C20001A70104B1A8892B2013292B21A800E4862
:103C300002F0E7FA012805D100210B4802F096F9BD
:103C400028B110BD0021084802F0C4F9F4E723466A
:103C500000221146044802F076FAF2E7A80000209C
:103C6000AC000020640000208801002000B585B071
:103C7000002300930193029303931648164A0260AF
:103C80004FF48032426083600361836180F82030AA
:103C90004FF08052C2624FF050628262C3600122D4
:103CA000C26180F83030436101F018FE60B9002332
:103CB00000930122019202936946064801F0A2FF97
:103CC00028B905B05DF804FB00F038FEEFE700F01E
:103CD00035FEF6E7300100200020014010B58AB023
:103CE000002305930693079308930993026803F151
:103CF000804303F590339A4201D00AB010BD1B4CAB
:103D0000636C43F480736364636C03F480730193A6
:103D1000019B236B43F001032363236B03F0010337
:103D20000293029B012305930323069305A91048E0
:103D300002F0F0FC00221146122002F0ADF8122031
:103D400002F0E0F8236B43F002032363236B03F0DC
:103D500002030393039B236B43F004032363236B4E
:103D600003F004030493049BC7E700BF003802403C
:103D70000000024070B584B005460C460023009355
:103D8000019302930393204B1970204B02221A7067
:103D9000072927D800221A701C4B18781C4B53F89F
:103DA00020301B68184A11784A00D34003F00303FF
:103DB000184A1360002B18BF032B22D101260322BF
:103DC00006FA01F100F0EAFA134B53F8243000939D
:103DD0000196002402946946284601F013FF20460C
:103DE00004B070BD092907D8084B01221A70A1F14F
:103DF0000803054A1370CFE7A1F10A03024A1370C2
:103E0000CAE7FF20ECE700BF780100208001002016
:103E1000589400087C0100204C8E000808B5054B22
:103E20001B78054A126801219940044B187800F06C
:103E3000B5FA08BD780100207C0100208001002037
:103E40000020704738B504460121234802F06BFD7D
:103E50002268224B9A4200D038BD214801F032FE40
:103E6000204C2060204A1378013BDBB213701F4DB9
:103E700001221146284602F050FD21681C4800F03E
:103E8000EFF91C4C84ED000A00220121284602F0C3
:103E900044FDD4ED007ABFEE007AF4EE477AF1EEFD
:103EA00010FA13D09FED147AF4EEC77AF1EE10FAFF
:103EB00002DD104B83ED007A0E4BD3ED007AFCEE61
:103EC000E77A17EE900AFFF79FFEC5E7054B1868E3
:103ED000FFF79AFEC0E700BF00000240002001404B
:103EE000300100202C01002081010020000402404C
:103EF000100200208401002000F07F4530B587B01B
:103F0000124B1D78124B1B889BB2ED1AEDB2013596
:103F1000EDB2012412E005F01F020E4B53F82230DF
:103F2000009323460C4A102102A8FCF753FB02A879
:103F300001F0C2FB0135EDB20134E4B2A2B2044B90
:103F40001B889BB29A42E6D307B030BDA800002080
:103F500064000020AC000020408E000802282DD80C
:103F600070B5A0B00D4603D1154E0020154C11E0E0
:103F7000154801F0A1FB154801F09EFB144801F023
:103F80009BFB144801F098FB134EEEE7696820464E
:103F9000B047103423680BB10228F7D1052802D0AE
:103FA000002020B070BD6B680C4A80216846FCF789
:103FB00011FB684601F080FB0020F2E7FA20704711
:103FC00009400008289300088C8E0008A08E000885
:103FD000C48E0008E08E0008E13F0008FC8E000857
:103FE00000B5A3B0436800930368064A802102A885
:103FF000FCF7F0FA02A801F05FFB002023B05DF8A7
:1040000004FB00BF188F000830B5C3B00446056834
:104010002846FCF769FB10B1052043B030BDA3680A
:104020000193636800932B46054A4FF4807102A800
:10403000FCF7D0FA02A801F03FFB0220EDE700BF39
:10404000248F000810B501460E4800F037FD0446E5
:10405000FA280FD0FB2803D0F9280FD0204610BD36
:10406000094801F029FB094801F026FB084801F046
:1040700023FBF3E7074801F01FFBEFE7064801F0D9
:104080001BFBEBE728930008388F0008C0040020D2
:10409000448F0008548F00086C8F000800B583B06F
:1040A0000023009301931148114B036001F04CFF72
:1040B00090B900220092019269460C4802F076F80D
:1040C00068B92423009310226946084802F06EF86C
:1040D00040B903B05DF804FB00F030FCE9E700F004
:1040E0002DFCEEE700F02AFCF3E700BF880100207A
:1040F0000074004010B588B0002303930493059327
:10410000069307930268234B9A4201D008B010BD72
:10411000044603F5E2331A6C42F000521A641A6C3A
:1041200002F000520192019A1A6B42F001021A63E6
:104130001B6B03F001030293029B302303930323C1
:10414000049303A9144802F0E5FA1448144B0360E1
:104150004FF060634360402383600023C3604FF4EB
:10416000806202614FF4805242614FF4804282616A
:104170004FF48072C2614FF440320262436202F037
:10418000DDF818B9054BE3609C63BFE700F0D6FB90
:10419000F8E700BF00740040000002409C010020CE
:1041A000A060024000B583B00A4B1A6B42F40012C3
:1041B0001A631B6B03F400130193019B0022114649
:1041C000112001F069FE112001F09CFE03B05DF8A2
:1041D00004FB00BF00380240F8B500B30446067F78
:1041E000FEB9076801373846FCF778F80546A06045
:1041F000C8B160680130FCF771F8E060A8B1BA009E
:1042000000212846FCF77AF862680132920000210A
:10421000E068FCF773F8012323773046F8BDFF26EA
:10422000FBE7FF26F9E7FF26F7E7FF26F5E798B15A
:1042300038B50546037F8BB1002404778068FCF70E
:1042400055F8AC60E868FCF751F8EC602C606C60E5
:104250006C612C61204638BDFF207047FF20FAE7D3
:1042600082B0019100286FD00346027F002A6ED0F1
:1042700002689FED387A19E0996801EB820C6FF0C3
:104280004040104401EB80010968CCF800105969E6
:1042900001EB8201D1ED007A996801EB8201D1ED49
:1042A000006A67EEA67A37EE277A013A002AE3D150
:1042B0009968DDED017AF8EE677AC1ED007A596907
:1042C00001EB820191ED000A996801EB8202D2EDC7
:1042D000007A20EE270A30EE070A5A6819E0D968FA
:1042E00001EB820C6FF04040104401EB8001096843
:1042F000CCF80010196901EB8201D1ED007AD96880
:1043000001EB820191ED007A67EE877A30EE270AA1
:10431000013A002AE3D1D96881ED000A196901EB5D
:104320008201D1ED007AD96801EB820292ED007A28
:1043300067EE877A77EE807A93ED060AB8EE400A48
:1043400030EE270A02B07047BFEE000AFAE7BFEE70
:10435000000AF7E70000000084B00F4B1A6B42F030
:1043600001021A631A6B02F001020192019A1A6BA0
:1043700042F008021A631A6B02F008020292029AD3
:104380001A6B42F040021A631B6B03F04003039365
:10439000039B04B0704700BF0038024000B587B0EF
:1043A00000230193029303930493059301910292D6
:1043B00001A9044B53F8200002F0ACF907B05DF8F6
:1043C00004FB00BF58940008024648B90B6813F478
:1043D000005F09D113F4804F06D113F0010F0BD108
:1043E000032A0ED00020704723F400520A6023F401
:1043F000C0430B60FF20704723F001030B60FF20D8
:1044000070470B6813F4807F04D113F4007F01D14F
:104410000020704723F480720A6023F440730B601D
:10442000FF207047F0B58FB0154E06444B1E334445
:10443000144A934222D804460F4600250DE000930B
:104440002246114903A8FCF725F903A801F034F925
:104450000135EDB20134A4B20136BD420BD233783E
:10446000A3F12002D2B25E2AE9D92246074903A865
:10447000FCF710F9E9E700200FB0F0BDFA20FBE7E8
:1044800000000620FFFF0620A49400088494000882
:104490002DE9F0418CB017461A4E06444B1E3344AA
:1044A000194A93422BD804468846A7F12003DBB271
:1044B0005E2B09D93A46154901A8FCF7EBF801A88B
:1044C00001F0FAF8002514E03B463A46104901A8ED
:1044D000FCF7E0F8F3E706F8017B22460D4901A856
:1044E000FCF7D8F801A801F0E7F80135EDB2013486
:1044F000A4B24545EFD300200CB0BDE8F081FA200E
:10450000FAE700BF00000620FFFF0620C89400085D
:10451000D8940008F0940008012801D0FA207047D0
:1045200008B5044801F0C8F8034801F0C5F80020B8
:1045300008BD00BF189500084C950008032801D05D
:10454000FA20704738B50C46486801F019F905465D
:10455000B0F5803F0CD2A06801F012F983B2013BA4
:104560009BB2FE2B06D8C1B2A8B2FFF75BFF38BDE5
:10457000FA20FCE7FA20FAE7042801D0FA20704775
:1045800070B50D46486801F0FBF80446B0F5803F71
:1045900010D2A86801F0F4F8C6B2731E9BB2FE2BCD
:1045A0000AD8E86801F0ECF8C2B23146A0B2FFF7D1
:1045B0006FFF70BDFA20FCE7FA20FAE7032801D06C
:1045C000FA20704770B58AB00C46486801F0D8F8F8
:1045D000054686B20A2E39D8A06801F0D1F80990B4
:1045E00001384FF6FE73984232D809A93046FFF7DA
:1045F000EBFE30B900220999E8B2FFF7CFFE0024A4
:1046000008E0144801F058F8F4E7099B5B080993A7
:104610000134E4B20F2C16D8099B13F0010FF4D02B
:10462000ABB20D4A52F823301B686200D34013F03E
:10463000030FEAD12246094901A8FCF72BF801A88B
:1046400001F03AF8E1E700200AB070BDFA20FBE77C
:10465000FA20F9E7A895000858940008D0950008BA
:10466000032801D0FA20704770B58AB00C4648681C
:1046700001F086F8054686B20A2E3AD8A06801F005
:104680007FF8099001384FF6FE73984233D809A994
:104690003046FFF799FE30B901220999E8B2FFF7D9
:1046A0007DFE002408E0154801F006F8F4E7099BB8
:1046B0005B0809930134E4B20F2C17D8099B13F05F
:1046C000010FF4D0ABB20E4A52F823301B686200DF
:1046D000D34003F00303012BE9D12246094901A885
:1046E000FBF7D8FF01A800F0E7FFE0E700200AB0E1
:1046F00070BDFA20FBE7FA20F9E700BFA895000893
:1047000058940008F0950008032801D0FA2070475B
:1047100070B58CB00C46486801F032F8064683B29A
:104720000A2B41D8A06801F02BF80546421E4FF62F
:10473000FE739A423AD806F14102D2B21C4901A84E
:10474000FBF7A8FF01A800F0B7FF00240AE022460B
:10475000184901A8FBF79EFF01A800F0ADFF6D0806
:104760000134E4B20F2C1CD815F0010F15D0B3B2F0
:10477000114A52F8230003686200D34013F0030F7C
:10478000E5D10E4B33F8141002F0C0F80346224670
:104790000B4901A8FBF77EFFDEE70A4800F08CFF1B
:1047A000DDE700200CB070BDFA20FBE7FA20F9E746
:1047B00010960008349600085894000838940008B1
:1047C000209600085C960008042801D0FA20704763
:1047D0002DE9F0418CB00C46486800F0D1FF074647
:1047E00083B20A2B47D8A06800F0CAFF0546421ED4
:1047F0004FF6FE739A4242D8E06800F0C1FF86B2DD
:10480000FF2E3ED807F14102D2B21F4901A8FBF7A3
:1048100041FF01A800F050FF002414E006F0010859
:1048200042461A4B33F8141002F077F843462246FA
:10483000174901A8FBF72EFF01A800F03DFF6D0806
:1048400076080134E4B20F2C13D815F0010FF6D01E
:10485000BBB2104A52F8230003686200D34003F051
:104860000303012BDAD022460B4901A8FBF712FF04
:10487000E2E7002000E0FA200CB0BDE8F081FA2069
:10488000FAE7FA20F8E700BF10960008389400080D
:104890002096000858940008609600080000000068
:1048A000F0B58BB0022803D0FA2528460BB0F0BD36
:1048B000486800F065FF0446C6B20F2E2BD831467B
:1048C0001B48FFF757FA054600BB194F3846FFF75C
:1048D000B7FA07EE100AB8EE477B9FED116B27EE93
:1048E000067B9FED115B87EE056BFCEEC67B17EE3A
:1048F000903AE2B20F496846FBF7CCFE684600F0FA
:10490000DBFE31463846FFF789FACEE70A4800F069
:10491000D3FEF925C9E7FA25C7E700BFAFF300804A
:104920000000000000C8A9400000000000FEAF40E9
:1049300030010020B09600088C96000872B6FEE7A1
:1049400000B595B03422002107A8FBF7D7FC00235F
:1049500002930393049305930693224A116C41F04A
:1049600080511164126C02F080520092009A1E4A2B
:10497000116841F440411160126802F44042019212
:10498000019A0222079201210A9110210B910D92A6
:104990000E9308230F93D82310931192129213921F
:1049A00007A802F007F8B0B901F0C6FFA8B90F23B5
:1049B000029302230393002304934FF4A05305931F
:1049C0004FF480530693072102A802F079FA30B918
:1049D00015B05DF804FBFFF7B1FFFFF7AFFFFFF77E
:1049E000ADFF00BF003802400070004008B501F084
:1049F00023FAFFF7A5FFFFF7AFFCFFF7D3FB00F0AB
:104A00008FFDFFF733F9FFF749FB00F06DFC00F075
:104A1000A3FC00F049FB00210120FFF77DFD1D48AC
:104A200000F04AFE1C4800F047FE1C48FFF70AFB56
:104A30001B48FFF707FB1B48FFF704FB1A48FFF76B
:104A400001FB3E2000F012FE00F0D4FD05E0174B04
:104A500000221A70164B1B7853B9144B1B78002B8D
:104A6000F8D000F0D3FDFF28F1D000F0FFFDEEE715
:104A70001048FFF7E7FA18B90E490F48FBF79EFFF9
:104A80003E2000F0F3FD0A4B00221A7000F0B2FD48
:104A9000E3E700BFD49600080097000834970008A9
:104AA0003C970008489700085C920008D00400205A
:104AB000D5050020C0040020FC0100202DE9F041B4
:104AC000002950D007460C460B78002B4DD00846E5
:104AD000FBF7D6FFC0B20130C0B2FBF7FFFB804648
:104AE000002844D02146FBF769FF22494046FCF7E5
:104AF00035F80546002426460EE0A1003046FBF7B7
:104B00000BFD06466FF04043234446F823501949F5
:104B10000020FCF723F8054645B10134E4B2012C2E
:104B2000EBD10420FBF7DAFB0646EBE784B9FB2464
:104B300016B13046FBF7DAFB4046FBF7D7FB2046C1
:104B4000BDE8F081FB683146204698470446EFE710
:104B5000386830B13168FBF7C7FD0028F2D0103754
:104B6000F6E7FB24E4E7FE24E9E7FE24E7E7FC247C
:104B7000E5E700BF209C000808B5054B01221A801C
:104B8000044800F0D7FE044802F05EFE08BD00BFF6
:104B900064000020300100207404002008B50348A0
:104BA00000F06AFF024802F097FE08BD30010020C5
:104BB00074040020032801D0FA207047F0B58DB0AE
:104BC0000D46886800F0DCFD0646421E4FF6FE7377
:104BD0009A422CD80024022C26D8164B53F82410C5
:104BE0006868FBF781FD10B10134E4B2F3E7124BC2
:104BF00001221A70114B03EB84025188B2B202FBFE
:104C000001F133F8240000F035FC0A4B53F824304E
:104C1000009333460A4A282102A8FBF7DBFC02A8CE
:104C200000F04AFD002000E0FA200DB0F0BDFA20AF
:104C3000FBE700BF680000200C0200203C9B00083E
:104C40005097000830B591B0022803D0FA252846C5
:104C500011B030BD486800F093FD0446C1B20F2981
:104C600013D80B48FFF786F8054648B9E3B2094A5E
:104C70003E216846FBF7AEFC684600F01DFDE6E706
:104C8000054800F019FDF925E1E7FA25DFE700BF47
:104C900030010020749700088C96000802285CD12F
:104CA00010B52F4B1B7F012B21D04C682D4920467E
:104CB000FBF71AFD00B32C492046FBF715FD002831
:104CC00031D02A492046FBF70FFD00283BD1244B69
:104CD00012221A6000225A6040F2FF729A61244A3E
:104CE0005A61244A1A61244800F0E6FC11E0234886
:104CF00000F0E2FC002015E0194B2A221A60002285
:104D00005A609A611E4A5A611A4A1A611D4800F097
:104D1000D3FC1348FFF760FAFF2819D01A4800F0B7
:104D2000CBFC002010BD0E4B1C221A6000225A60E2
:104D300040F2FF729A61154A5A610E4A1A6114488C
:104D400000F0BAFCE5E7134800F0B6FC0020E9E704
:104D5000114800F0B1FC0020E4E7FA20704700BFE2
:104D600010020020B8970008D8970008FC970008A8
:104D7000A4990008109B0008009800089C97000860
:104D8000649A0008BC9700085C980008F099000835
:104D9000DC970008209800083C980008012801D002
:104DA000FA20704708B50748FFF741FAFF2804D0FA
:104DB000054800F081FC002008BD044800F07CFCA0
:104DC0000020F9E710020020889800086C9800087D
:104DD00010B588B0022846D8264B1B78012B2ED060
:104DE000254B1B78002B2FD0012832D0486800F0CB
:104DF000C7FCC0B2214B18701B78002B35D01F4B5D
:104E00001B78DBB2092B32D81C4B1A781C49684638
:104E1000FBF740FC684600F04FFCFFF7ADFE174B78
:104E20001B7803F0FF04002BF9D1FFF7B7FE1548FC
:104E300000F042FCFFF762F8204608B010BD1248AF
:104E400000F03AFC0024F7E7104800F035FCF924A4
:104E5000F2E70F4800F030FCFFF78EFE054B012211
:104E60001A700024E8E7FA24E6E7FA24E4E7FA24D3
:104E7000E2E700BF0D0200200C02002081010020AB
:104E8000F09800080899000898980008B898000859
:104E9000D898000810B5012810D1094B1C784CB1E6
:104EA000FFF77CFE0024064B1C70064800F004FC53
:104EB000204610BD044800F0FFFBF9E7FA24F7E7AD
:104EC0000D020020389900081C99000803283AD8E0
:104ED00070B58CB00D4602280FD0886800F050FCE9
:104EE0000646431E632B30D8194C216841B36868CD
:104EF000FBF7FAFB78B10834F7E716496868FBF767
:104F0000F3FB08B1FA201CE000F048F8124800F06A
:104F1000D3FB002015E000F023F863689847304683
:104F200000F044F800F028F800966B680B4A28213E
:104F300002A8FBF74FFB02A800F0BEFB002000E038
:104F4000FA200CB070BDFA207047FA20F9E700BFD4
:104F5000149B00084C9900085099000868990008B3
:104F600008B5FFF79BF800F0BFF9024802F028FCF3
:104F7000002008BD2804002000B583B00023009362
:104F80006423044A1021044801F034F803B05DF8AA
:104F900004FB00BF300200208801002008B510216A
:104FA000014801F0A5F808BD8801002008B5034BB1
:104FB000B3FBF0F000F028FA002008BDC07A100022
:104FC00010B500241EE0630007EE103AB8EEC77B70
:104FD0009FED0F0B27EE007B9FED0F0B87EE000B75
:104FE000FDF7A6FDB7EE007B30EE070B9FED0C7BC7
:104FF00020EE070BBCEEC00B0B4B10EE102A43F853
:1050000024200134632CDEDD10BD00BFAFF300802F
:105010004AD8124DFB210940000000000000594011
:105020000000000000FC9F4030020020002307E049
:1050300003EBC30202EBC2020A4941F82320013309
:10504000312BF5DD322309E0C3F1640003EBC30229
:1050500002EBC202034941F82020013B002BF3DCA4
:10506000704700BF3002002000230AE0064A40F6E5
:10507000FF7142F8231003F13201002042F82100B1
:105080000133312BF2DD704730020020002306E0AF
:1050900003EB8301CA00034941F823200133632B4A
:1050A000F6DD70473002002008B51048104B036051
:1050B0004FF482734360002383604FF4E062C26068
:1050C000036143614FF400728261C3610362436212
:1050D00083620722C26203630823436302F0CCFAAF
:1050E00000B908BDFFF72AFCFBE700BFC0030020A2
:1050F0000030014070B588B00023039304930593FA
:105100000693079302681D4B9A4201D008B070BD08
:1051100003F584335A6C42F480525A645A6C02F498
:1051200080520092009A1A6B42F001021A631A6BC5
:1051300002F001020192019A1A6B42F040021A63D6
:105140001B6B03F040030293029BC02303930226D0
:105150000496032506950524079403A9084801F041
:10516000D9FA4FF400630393049600230593069540
:10517000079403A9034801F0CDFAC7E700300140C6
:10518000000002400018024082B00A4B1A6C42F044
:1051900080521A641A6C02F080520092009A5A6C83
:1051A00042F480425A645B6C03F480430193019B98
:1051B00002B0704700380240FEE7FEE7FEE7FEE778
:1051C000FEE770477047704708B500F041FE08BD24
:1051D00008B5024801F0B0F908BD00BF9C010020ED
:1051E00008B5024800F073FC08BD00BF3001002084
:1051F00008B5024802F08EFB08BD00BF280400205D
:1052000008B5024802F070FF08BD00BFD8050020B5
:105210000120704708B5FBF737F8162303604FF0FD
:10522000FF3008BD08B54FF0FF31FFF7F3FFFEE791
:1052300070B50C461646002506E0AFF30080214607
:1052400001F8010B01350C46B542F6DB304670BD66
:1052500070B50C461646002504E014F8010BAFF3B8
:1052600000800135B542F8DB304670BD4FF0FF30AD
:1052700070474FF400534B60002070470120704787
:105280000020704710B503460C4A0D490D480068D0
:1052900040B10C4800680344521A934206D8094AA8
:1052A000136010BD0748084C0460F2E7FAF7ECFF02
:1052B0000C2303604FF0FF30F3E700BF000008202D
:1052C000000400002404002068060020054BD3F8E9
:1052D000882042F47002C3F888204FF000629A6080
:1052E000704700BF00ED00E000B589B000230493D3
:1052F00005930693079301930293039315484FF088
:10530000804202604360836048F69F42C26003614E
:10531000836102F055FC98B94FF48053049304A9BB
:105320000C4802F08BFC70B92023019300230393F7
:1053300001A9084802F002FD40B909B05DF804FB7C
:10534000FFF7FCFAE8E7FFF7F9FAEDE7FFF7F6FAFF
:10535000F3E700BF2804002000B585B000230193C7
:10536000029303930E480F4A0260436083604FF636
:10537000FF72C260836102F023FC58B920230193BD
:105380000023039301A9064802F0D8FC28B905B010
:105390005DF804FBFFF7D2FAF0E7FFF7CFFAF6E784
:1053A000740400200010004000B583B00368B3F11E
:1053B000804F05D0124A934216D003B05DF804FB2B
:1053C00003F50E331A6C42F001021A641B6C03F0F1
:1053D00001030093009B002211461C2000F05CFD9D
:1053E0001C2000F08FFDE8E7064B1A6C42F010021B
:1053F0001A641B6C03F010030193019BDDE700BFEF
:10540000001000400038024000B589B0002304932A
:10541000059306930793019302930393144A4FF065
:105420008041116053609360D060136193611046B6
:1054300002F0C6FB98B94FF48053049304A90C48BA
:1054400002F0FCFB70B9202301930023039301A910
:10545000074802F073FC40B909B05DF804FBFFF7A0
:105460006DFAE8E7FFF76AFAEDE7FFF767FAF3E7A7
:105470002804002008B5431E054843600139C16077
:1054800002F09EFB00B908BDFFF758FAFBE700BF2A
:10549000740400200A4A117879B108B5094B1B78C9
:1054A000DBB28B4205D0083211780029F6D1FF20FB
:1054B00002E053689847002008BDFF20704700BFF6
:1054C000609B0008D4050020054A1378DBB205492B
:1054D00008780549C85413780133DBB2137070475C
:1054E000D1040020D4050020C004002098B110B5DC
:1054F000044603781BB1FBF7C3FA102800DD10BD8A
:1055000021460548FBF75AFA2046FBF7B9FAC0B224
:10551000024B1870F3E77047C0040020D10400204C
:1055200008B50B480B4B03604FF4E1334360002395
:105530008360C36003610C2242618361C3610362C3
:10554000436203F0EAF900B908BDFFF7F7F9FBE79A
:10555000D80500200048004010B5ACB0044600213A
:105560002791289129912A912B91902203A8FAF74B
:10557000C5FE22681C4B9A4201D02CB010BD4FF4DE
:105580008073039303A801F077FD50BB174B1A6C8F
:1055900042F480221A641A6C02F480220192019A69
:1055A0001A6B42F008021A631B6B03F008030293A4
:1055B000029B4FF4407327930223289300242994DD
:1055C00003232A9307232B9327A9094801F0A2F864
:1055D00022462146272000F05FFC272000F092FCA5
:1055E000CBE7FFF7ABF9D1E70048004000380240B5
:1055F000000C024008B501220249034803F028FAD2
:1056000008BD00BFD4050020D805002008B50E4B0A
:105610001B78DBB20F2B0DD00C4B1B78DBB20D2BA4
:105620000CD1FFF737FF60B1FFF74EFF074B18783B
:10563000C0B208BD054B0D221A70EDE7FFF7DAFF87
:10564000EFE7FF20F5E700BFD1040020D4050020DC
:105650000268044B9A4200D07047034B01221A7033
:10566000FAE700BF00480040D004002008B5054B11
:10567000DB6F212BFBD0044908700122014802F0A6
:105680002FFC08BDD8050020D405002008B5084B24
:105690001B784BB1064A1378013BDBB21370054B04
:1056A0001878FFF7E3FF08BD024B00221A70F6E7F7
:1056B000D1040020D4050020C0B170B504460378A1
:1056C0009BB1FBF7DDF90546B0F5807F0DDC084B9B
:1056D000DB6F212BFBD0074E21463046FBF76EF9DE
:1056E000AAB23146024802F0FBFB70BD704700BF12
:1056F000D8050020D404002038B50A4B1B7803B924
:1057000038BD084D2A78084C7F212046FAF7F6FD6F
:105710002B78DBB20022E2542A702046FFF7CCFF40
:10572000EEE700BFD1040020C004002008B5FFF759
:10573000E3FF08BD10B5FFF7DFFF044C2046FFF77D
:10574000BBFF2046FFF7D2FE10BD00BFFC010020CA
:1057500008B50748FFF7B0FF064A1378DBB200210F
:105760000548C1541170054B01221A7008BD00BFD5
:1057700048950008D1040020C0040020D505002071
:1057800008B5002201E00132D2B2835C33B1303B74
:10579000DBB2162BF7D94FF0FF3003E010220021C7
:1057A000FBF7FCFA08BD00004A4B5A6822F440326D
:1057B0005A605A6841680A435A600268536823F481
:1057C0008073536002685368016943EA01235360A0
:1057D0000268536823F0407353600268536881681D
:1057E0000B4353600268936823F40063936002687C
:1057F0009368C1680B439360826A374B9A4257D0D3
:105800000268936823F07063936002689368816A0A
:105810000B4393600268936823F0405393600268DF
:105820009368C16A0B4393600268936823F0020394
:10583000936002689368816943EA4103936090F83A
:105840002030002B3FD00268536843F4006353605C
:105850000268536823F46043536001684B68426AEE
:10586000013A43EA42334B600268D36A23F470037F
:10587000D3620168CB6AC269013A43EA0253CB6240
:105880000268936823F4007393600268936890F849
:10589000301043EA412393600268936823F48063E5
:1058A000936002689368416943EA8123936070477B
:1058B0000268936823F0706393600268936823F032
:1058C00040539360B0E70268536823F40063536069
:1058D000CAE700BF002301400100000F28B310B544
:1058E0000446036C43B1236C13F0100F0BD001205E
:1058F000002384F83C3010BDFEF7F0F90023636408
:1059000084F83C30EFE7226C094B134043F002036C
:1059100023642046FFF748FF00206064236C23F0D7
:10592000030343F001032364E2E70120704700BF53
:10593000FDEEFFFF82B00023019390F83C30012B75
:1059400000F08480012380F83C3003689A6812F0EC
:10595000010F13D19A6842F001029A603F4B1B6815
:105960003F4AA2FB03239B0C03EB4303019302E09A
:10597000019B013B0193019B002BF9D103689A68BD
:1059800012F0010F57D0016C364A0A4042F480727F
:1059900002645A6812F4806F05D0026C22F44052FF
:1059A00042F480520264026C12F4805F1ED0426C9A
:1059B00022F006024264002280F83C206FF02202AE
:1059C0001A6002685168284B0B435360274B5B6891
:1059D00013F01F0F0DD103689A6812F0405F37D1A2
:1059E0009A6842F080429A6000202DE000224264D2
:1059F000E1E703681E4A93420AD01C4B5B6813F030
:105A0000100F27D103681B4A93420AD000201BE0E5
:105A10009A6812F0405FF0D19A6842F080429A6032
:105A2000EBE79A6812F0405F16D19A6842F0804224
:105A30009A60002008E0036C43F010030364436C99
:105A400043F001034364002002B070470220FBE7EB
:105A50000020F9E70020F7E70020F5E774000020B8
:105A600083DE1B43FEF8FFFF2000000400230140FB
:105A7000002001400022014090F83C30012B1BD057
:105A8000012380F83C300268936823F0010393609F
:105A900003689A6812F0010F09D15968074A0A4051
:105AA0005A60026C064B134043F001030364002369
:105AB00080F83C301846704702207047DFFFFFFB3C
:105AC000FEEEFFFF0368D86C70477047704770B5F3
:105AD000044603681E685D68C5F3401212EA560268
